{
  "contractName": "CoinFlip",
  "abi": [
    {
      "constant": false,
      "inputs": [
        {
          "internalType": "bytes32",
          "name": "_myid",
          "type": "bytes32"
        },
        {
          "internalType": "string",
          "name": "_result",
          "type": "string"
        }
      ],
      "name": "__callback",
      "outputs": [],
      "payable": false,
      "stateMutability": "nonpayable",
      "type": "function"
    },
    {
      "constant": false,
      "inputs": [
        {
          "internalType": "bytes32",
          "name": "_queryId",
          "type": "bytes32"
        },
        {
          "internalType": "string",
          "name": "_result",
          "type": "string"
        },
        {
          "internalType": "bytes",
          "name": "_proof",
          "type": "bytes"
        }
      ],
      "name": "__callback",
      "outputs": [],
      "payable": false,
      "stateMutability": "nonpayable",
      "type": "function"
    },
    {
      "constant": false,
      "inputs": [],
      "name": "close",
      "outputs": [],
      "payable": false,
      "stateMutability": "nonpayable",
      "type": "function"
    },
    {
      "constant": false,
      "inputs": [],
      "name": "collectBalance",
      "outputs": [],
      "payable": false,
      "stateMutability": "nonpayable",
      "type": "function"
    },
    {
      "inputs": [],
      "payable": false,
      "stateMutability": "nonpayable",
      "type": "constructor"
    },
    {
      "anonymous": false,
      "inputs": [
        {
          "indexed": false,
          "internalType": "address",
          "name": "caller",
          "type": "address"
        },
        {
          "indexed": false,
          "internalType": "bytes32",
          "name": "queryId",
          "type": "bytes32"
        },
        {
          "indexed": false,
          "internalType": "uint256",
          "name": "amount",
          "type": "uint256"
        },
        {
          "indexed": false,
          "internalType": "bool",
          "name": "won",
          "type": "bool"
        }
      ],
      "name": "CoinFlipResult",
      "type": "event"
    },
    {
      "anonymous": false,
      "inputs": [
        {
          "indexed": false,
          "internalType": "uint256",
          "name": "balance",
          "type": "uint256"
        }
      ],
      "name": "ContractDeposit",
      "type": "event"
    },
    {
      "anonymous": false,
      "inputs": [
        {
          "indexed": false,
          "internalType": "uint256",
          "name": "balance",
          "type": "uint256"
        }
      ],
      "name": "ContractWithdrawal",
      "type": "event"
    },
    {
      "constant": false,
      "inputs": [],
      "name": "deposit",
      "outputs": [
        {
          "internalType": "uint256",
          "name": "",
          "type": "uint256"
        }
      ],
      "payable": true,
      "stateMutability": "payable",
      "type": "function"
    },
    {
      "constant": false,
      "inputs": [],
      "name": "flipCoin",
      "outputs": [
        {
          "internalType": "bytes32",
          "name": "",
          "type": "bytes32"
        }
      ],
      "payable": true,
      "stateMutability": "payable",
      "type": "function"
    },
    {
      "anonymous": false,
      "inputs": [
        {
          "indexed": false,
          "internalType": "uint256",
          "name": "number",
          "type": "uint256"
        }
      ],
      "name": "GeneratedRandomNumber",
      "type": "event"
    },
    {
      "anonymous": false,
      "inputs": [
        {
          "indexed": false,
          "internalType": "string",
          "name": "error",
          "type": "string"
        }
      ],
      "name": "LogError",
      "type": "event"
    },
    {
      "anonymous": false,
      "inputs": [
        {
          "indexed": false,
          "internalType": "address",
          "name": "caller",
          "type": "address"
        },
        {
          "indexed": false,
          "internalType": "bytes32",
          "name": "queryId",
          "type": "bytes32"
        }
      ],
      "name": "LogNewProvableQuery",
      "type": "event"
    },
    {
      "constant": false,
      "inputs": [
        {
          "internalType": "uint256",
          "name": "newMinumumBet",
          "type": "uint256"
        }
      ],
      "name": "setMinimumBet",
      "outputs": [],
      "payable": false,
      "stateMutability": "nonpayable",
      "type": "function"
    },
    {
      "constant": false,
      "inputs": [
        {
          "internalType": "uint256",
          "name": "amount",
          "type": "uint256"
        }
      ],
      "name": "withdraw",
      "outputs": [
        {
          "internalType": "uint256",
          "name": "",
          "type": "uint256"
        }
      ],
      "payable": true,
      "stateMutability": "payable",
      "type": "function"
    },
    {
      "constant": false,
      "inputs": [],
      "name": "withdrawAll",
      "outputs": [],
      "payable": false,
      "stateMutability": "nonpayable",
      "type": "function"
    },
    {
      "constant": true,
      "inputs": [],
      "name": "balance",
      "outputs": [
        {
          "internalType": "uint256",
          "name": "",
          "type": "uint256"
        }
      ],
      "payable": false,
      "stateMutability": "view",
      "type": "function"
    },
    {
      "constant": true,
      "inputs": [
        {
          "internalType": "address",
          "name": "",
          "type": "address"
        }
      ],
      "name": "balancesToBeCollected",
      "outputs": [
        {
          "internalType": "uint256",
          "name": "",
          "type": "uint256"
        }
      ],
      "payable": false,
      "stateMutability": "view",
      "type": "function"
    },
    {
      "constant": true,
      "inputs": [],
      "name": "minimumBet",
      "outputs": [
        {
          "internalType": "uint256",
          "name": "",
          "type": "uint256"
        }
      ],
      "payable": false,
      "stateMutability": "view",
      "type": "function"
    },
    {
      "constant": true,
      "inputs": [],
      "name": "myBalanceToBeCollected",
      "outputs": [
        {
          "internalType": "uint256",
          "name": "",
          "type": "uint256"
        }
      ],
      "payable": false,
      "stateMutability": "view",
      "type": "function"
    },
    {
      "constant": true,
      "inputs": [],
      "name": "owner",
      "outputs": [
        {
          "internalType": "address",
          "name": "",
          "type": "address"
        }
      ],
      "payable": false,
      "stateMutability": "view",
      "type": "function"
    },
    {
      "constant": true,
      "inputs": [
        {
          "internalType": "bytes32",
          "name": "",
          "type": "bytes32"
        }
      ],
      "name": "pendingQueries",
      "outputs": [
        {
          "internalType": "address",
          "name": "sender",
          "type": "address"
        },
        {
          "internalType": "uint256",
          "name": "bet",
          "type": "uint256"
        }
      ],
      "payable": false,
      "stateMutability": "view",
      "type": "function"
    }
  ],
  "bytecode": "0x6080604052655af3107a40006002553480156200001b57600080fd5b50336000806101000a81548173ffffffffffffffffffffffffffffffffffffffff021916908373ffffffffffffffffffffffffffffffffffffffff16021790555034600181905550620000736200007a60201b60201c565b5062001fbd565b600080620000956000600162030d406200010660201b60201c565b90507f94f2559b5e2b297de3db1587daf2352e872ada3dad01dab9ee3733592fa22ed36040518080602001828103825260178152602001807f50726f7661626c65207175657279207761732073656e7400000000000000000081525060200191505060405180910390a18091505090565b6000808311801562000119575060208311155b6200012357600080fd5b600a84029350606060016040519080825280601f01601f191660200182016040528015620001605781602001600182028038833980820191505090505b5090508360f81b816000815181106200017557fe5b60200101907effffffffffffffffffffffffffffffffffffffffffffffffffffffffffffff1916908160001a905350606060206040519080825280601f01601f191660200182016040528015620001db5781602001600182028038833980820191505090505b509050606060206040519080825280601f01601f191660200182016040528015620002155781602001600182028038833980820191505090505b50905060006200022a620006d960201b60201c565b905060208352424118600143034018602084015260208252806020830152606060206040519080825280601f01601f1916602001820160405280156200027f5781602001600182028038833980820191505090505b509050886020820152606060086040519080825280601f01601f191660200182016040528015620002bf5781602001600182028038833980820191505090505b509050620002da826018600884600062000a1560201b60201c565b50620002e562001ecc565b60405180608001604052808781526020018881526020018681526020018481525090506000620003526040518060400160405280600681526020017f72616e646f6d0000000000000000000000000000000000000000000000000000815250838c62000a7760201b60201c565b9050606060086040519080825280601f01601f1916602001820160405280156200038b5781602001600182028038833980820191505090505b50905060208401517f0100000000000000000000000000000000000000000000000000000000000000810460278301537e01000000000000000000000000000000000000000000000000000000000000810460268301537d010000000000000000000000000000000000000000000000000000000000810460258301537c0100000000000000000000000000000000000000000000000000000000810460248301537b01000000000000000000000000000000000000000000000000000000810460238301537a010000000000000000000000000000000000000000000000000000810460228301537901000000000000000000000000000000000000000000000000008104602183015378010000000000000000000000000000000000000000000000008104602083015350620006c6828285600160048110620004cc57fe5b6020020151600287600060048110620004e157fe5b60200201516040518082805190602001908083835b602083106200051b5780518252602082019150602081019050602083039250620004f6565b6001836020036101000a038019825116818451168082178552505050505050905001915050602060405180830381855afa1580156200055e573d6000803e3d6000fd5b5050506040513d60208110156200057457600080fd5b8101908080519060200190929190505050876002600481106200059357fe5b60200201516040516020018085805190602001908083835b60208310620005d05780518252602082019150602081019050602083039250620005ab565b6001836020036101000a03801982511681845116808217855250505050505090500184805190602001908083835b60208310620006235780518252602082019150602081019050602083039250620005fe565b6001836020036101000a03801982511681845116808217855250505050505090500183815260200182805190602001908083835b602083106200067c578051825260208201915060208101905060208303925062000657565b6001836020036101000a0380198251168184511680821785525050505050509050019450505050506040516020818303038152906040528051906020012062000e1160201b60201c565b8199505050505050505050509392505050565b60008073ffffffffffffffffffffffffffffffffffffffff16600560009054906101000a900473ffffffffffffffffffffffffffffffffffffffff1673ffffffffffffffffffffffffffffffffffffffff1614806200076a5750600062000768600560009054906101000a900473ffffffffffffffffffffffffffffffffffffffff1662000e2d60201b60201c565b145b15620007845762000782600062000e3860201b60201c565b505b600560009054906101000a900473ffffffffffffffffffffffffffffffffffffffff1673ffffffffffffffffffffffffffffffffffffffff166338cc48316040518163ffffffff1660e01b8152600401602060405180830381600087803b158015620007ef57600080fd5b505af115801562000804573d6000803e3d6000fd5b505050506040513d60208110156200081b57600080fd5b810190808051906020019092919050505073ffffffffffffffffffffffffffffffffffffffff16600460009054906101000a900473ffffffffffffffffffffffffffffffffffffffff1673ffffffffffffffffffffffffffffffffffffffff16146200096a57600560009054906101000a900473ffffffffffffffffffffffffffffffffffffffff1673ffffffffffffffffffffffffffffffffffffffff166338cc48316040518163ffffffff1660e01b8152600401602060405180830381600087803b158015620008ec57600080fd5b505af115801562000901573d6000803e3d6000fd5b505050506040513d60208110156200091857600080fd5b8101908080519060200190929190505050600460006101000a81548173ffffffffffffffffffffffffffffffffffffffff021916908373ffffffffffffffffffffffffffffffffffffffff1602179055505b600460009054906101000a900473ffffffffffffffffffffffffffffffffffffffff1673ffffffffffffffffffffffffffffffffffffffff1663abaa5f3e6040518163ffffffff1660e01b815260040160206040518083038186803b158015620009d357600080fd5b505afa158015620009e8573d6000803e3d6000fd5b505050506040513d6020811015620009ff57600080fd5b8101908080519060200190929190505050905090565b606060008285019050808451101562000a2d57600080fd5b600086602001905060008460200190505b86886020010182101562000a68578189015180828801525060208201915060208101905062000a3e565b85935050505095945050505050565b60008073ffffffffffffffffffffffffffffffffffffffff16600560009054906101000a900473ffffffffffffffffffffffffffffffffffffffff1673ffffffffffffffffffffffffffffffffffffffff16148062000b085750600062000b06600560009054906101000a900473ffffffffffffffffffffffffffffffffffffffff1662000e2d60201b60201c565b145b1562000b225762000b20600062000e3860201b60201c565b505b600560009054906101000a900473ffffffffffffffffffffffffffffffffffffffff1673ffffffffffffffffffffffffffffffffffffffff166338cc48316040518163ffffffff1660e01b8152600401602060405180830381600087803b15801562000b8d57600080fd5b505af115801562000ba2573d6000803e3d6000fd5b505050506040513d602081101562000bb957600080fd5b810190808051906020019092919050505073ffffffffffffffffffffffffffffffffffffffff16600460009054906101000a900473ffffffffffffffffffffffffffffffffffffffff1673ffffffffffffffffffffffffffffffffffffffff161462000d0857600560009054906101000a900473ffffffffffffffffffffffffffffffffffffffff1673ffffffffffffffffffffffffffffffffffffffff166338cc48316040518163ffffffff1660e01b8152600401602060405180830381600087803b15801562000c8a57600080fd5b505af115801562000c9f573d6000803e3d6000fd5b505050506040513d602081101562000cb657600080fd5b8101908080519060200190929190505050600460006101000a81548173ffffffffffffffffffffffffffffffffffffffff021916908373ffffffffffffffffffffffffffffffffffffffff1602179055505b6060600460405190808252806020026020018201604052801562000d4157816020015b606081526020019060019003908162000d2b5790505b5090508360006004811062000d5257fe5b60200201518160008151811062000d6557fe5b60200260200101819052508360016004811062000d7e57fe5b60200201518160018151811062000d9157fe5b60200260200101819052508360026004811062000daa57fe5b60200201518160028151811062000dbd57fe5b60200260200101819052508360036004811062000dd657fe5b60200201518160038151811062000de957fe5b602002602001018190525062000e0785828562000e5160201b60201c565b9150509392505050565b8060076000848152602001908152602001600020819055505050565b6000813b9050919050565b600062000e4a620013e960201b60201c565b9050919050565b60008073ffffffffffffffffffffffffffffffffffffffff16600560009054906101000a900473ffffffffffffffffffffffffffffffffffffffff1673ffffffffffffffffffffffffffffffffffffffff16148062000ee25750600062000ee0600560009054906101000a900473ffffffffffffffffffffffffffffffffffffffff1662000e2d60201b60201c565b145b1562000efc5762000efa600062000e3860201b60201c565b505b600560009054906101000a900473ffffffffffffffffffffffffffffffffffffffff1673ffffffffffffffffffffffffffffffffffffffff166338cc48316040518163ffffffff1660e01b8152600401602060405180830381600087803b15801562000f6757600080fd5b505af115801562000f7c573d6000803e3d6000fd5b505050506040513d602081101562000f9357600080fd5b810190808051906020019092919050505073ffffffffffffffffffffffffffffffffffffffff16600460009054906101000a900473ffffffffffffffffffffffffffffffffffffffff1673ffffffffffffffffffffffffffffffffffffffff1614620010e257600560009054906101000a900473ffffffffffffffffffffffffffffffffffffffff1673ffffffffffffffffffffffffffffffffffffffff166338cc48316040518163ffffffff1660e01b8152600401602060405180830381600087803b1580156200106457600080fd5b505af115801562001079573d6000803e3d6000fd5b505050506040513d60208110156200109057600080fd5b8101908080519060200190929190505050600460006101000a81548173ffffffffffffffffffffffffffffffffffffffff021916908373ffffffffffffffffffffffffffffffffffffffff1602179055505b6000600460009054906101000a900473ffffffffffffffffffffffffffffffffffffffff1673ffffffffffffffffffffffffffffffffffffffff16632ef3accc86856040518363ffffffff1660e01b81526004018080602001838152602001828103825284818151815260200191508051906020019080838360005b838110156200117b5780820151818401526020810190506200115e565b50505050905090810190601f168015620011a95780820380516001836020036101000a031916815260200191505b509350505050602060405180830381600087803b158015620011ca57600080fd5b505af1158015620011df573d6000803e3d6000fd5b505050506040513d6020811015620011f657600080fd5b81019080805190602001909291905050509050823a02670de0b6b3a7640000018111156200122b576000801b915050620013e2565b60606200123e85620019b860201b60201c565b9050600460009054906101000a900473ffffffffffffffffffffffffffffffffffffffff1673ffffffffffffffffffffffffffffffffffffffff1663c55c1cb68360008985896040518663ffffffff1660e01b8152600401808581526020018060200180602001848152602001838103835286818151815260200191508051906020019080838360005b83811015620012e5578082015181840152602081019050620012c8565b50505050905090810190601f168015620013135780820380516001836020036101000a031916815260200191505b50838103825285818151815260200191508051906020019080838360005b838110156200134e57808201518184015260208101905062001331565b50505050905090810190601f1680156200137c5780820380516001836020036101000a031916815260200191505b5096505050505050506020604051808303818588803b1580156200139f57600080fd5b505af1158015620013b4573d6000803e3d6000fd5b50505050506040513d6020811015620013cc57600080fd5b8101908080519060200190929190505050925050505b9392505050565b60008062001411731d3b2638a7cc9f2cb3d298a3da7a90b67e5506ed62000e2d60201b60201c565b1115620014bd57731d3b2638a7cc9f2cb3d298a3da7a90b67e5506ed600560006101000a81548173ffffffffffffffffffffffffffffffffffffffff021916908373ffffffffffffffffffffffffffffffffffffffff160217905550620014b36040518060400160405280600b81526020017f6574685f6d61696e6e657400000000000000000000000000000000000000000081525062001a7360201b60201c565b60019050620019b5565b6000620014e473c03a2615d5efaf5f49f60b7bb6583eaec212fdf162000e2d60201b60201c565b1115620015905773c03a2615d5efaf5f49f60b7bb6583eaec212fdf1600560006101000a81548173ffffffffffffffffffffffffffffffffffffffff021916908373ffffffffffffffffffffffffffffffffffffffff160217905550620015866040518060400160405280600c81526020017f6574685f726f707374656e33000000000000000000000000000000000000000081525062001a7360201b60201c565b60019050620019b5565b6000620015b773b7a07bcf2ba2f2703b24c0691b5278999c59ac7e62000e2d60201b60201c565b1115620016635773b7a07bcf2ba2f2703b24c0691b5278999c59ac7e600560006101000a81548173ffffffffffffffffffffffffffffffffffffffff021916908373ffffffffffffffffffffffffffffffffffffffff160217905550620016596040518060400160405280600981526020017f6574685f6b6f76616e000000000000000000000000000000000000000000000081525062001a7360201b60201c565b60019050620019b5565b60006200168a73146500cfd35b22e4a392fe0adc06de1a1368ed4862000e2d60201b60201c565b1115620017365773146500cfd35b22e4a392fe0adc06de1a1368ed48600560006101000a81548173ffffffffffffffffffffffffffffffffffffffff021916908373ffffffffffffffffffffffffffffffffffffffff1602179055506200172c6040518060400160405280600b81526020017f6574685f72696e6b65627900000000000000000000000000000000000000000081525062001a7360201b60201c565b60019050620019b5565b60006200175d73a2998efd205fb9d4b4963afb70778d6354ad3a4162000e2d60201b60201c565b1115620018095773a2998efd205fb9d4b4963afb70778d6354ad3a41600560006101000a81548173ffffffffffffffffffffffffffffffffffffffff021916908373ffffffffffffffffffffffffffffffffffffffff160217905550620017ff6040518060400160405280600a81526020017f6574685f676f65726c690000000000000000000000000000000000000000000081525062001a7360201b60201c565b60019050620019b5565b600062001830736f485c8bf6fc43ea212e93bbf8ce046c7f1cb47562000e2d60201b60201c565b11156200189657736f485c8bf6fc43ea212e93bbf8ce046c7f1cb475600560006101000a81548173ffffffffffffffffffffffffffffffffffffffff021916908373ffffffffffffffffffffffffffffffffffffffff16021790555060019050620019b5565b6000620018bd7320e12a1f859b3feae5fb2a0a32c18f5a65555bbf62000e2d60201b60201c565b111562001923577320e12a1f859b3feae5fb2a0a32c18f5a65555bbf600560006101000a81548173ffffffffffffffffffffffffffffffffffffffff021916908373ffffffffffffffffffffffffffffffffffffffff16021790555060019050620019b5565b60006200194a7351efaf4c8b3c9afbd5ab9f4bbc82784ab6ef8faa62000e2d60201b60201c565b1115620019b0577351efaf4c8b3c9afbd5ab9f4bbc82784ab6ef8faa600560006101000a81548173ffffffffffffffffffffffffffffffffffffffff021916908373ffffffffffffffffffffffffffffffffffffffff16021790555060019050620019b5565b600090505b90565b6060620019ca62001a8f60201b60201c565b620019d462001ef4565b620019ed8161040062001a9b60201b620030f31760201c565b62001a038162001ae860201b6200313d1760201c565b60008090505b835181101562001a4f5762001a4184828151811062001a2457fe5b60200260200101518362001afe60201b6200314b1790919060201c565b808060010191505062001a09565b5062001a668162001b3260201b620031701760201c565b8060000151915050919050565b806006908051906020019062001a8b92919062001f0e565b5050565b60405180590338823950565b600081905060006020828162001aad57fe5b061462001ac8576020818162001abf57fe5b06602003810190505b808360200181815250506040518084526000815281810160405250505050565b62001afb81600462001b4860201b60201c565b50565b62001b13826002835162001b7060201b60201c565b62001b2d818362001cf860201b620032df1790919060201c565b505050565b62001b4581600762001b4860201b60201c565b50565b62001b6c601f60058360ff16901b178362001db860201b6200338a1790919060201c565b5050565b6017811162001ba55762001b9f8160058460ff16901b60ff16178462001db860201b6200338a1790919060201c565b62001cf3565b60ff811162001bf65762001bd2601860058460ff16901b178462001db860201b6200338a1790919060201c565b62001bef8160018562001e0160201b620033ca179092919060201c565b5062001cf2565b61ffff811162001c485762001c24601960058460ff16901b178462001db860201b6200338a1790919060201c565b62001c418160028562001e0160201b620033ca179092919060201c565b5062001cf1565b63ffffffff811162001c9c5762001c78601a60058460ff16901b178462001db860201b6200338a1790919060201c565b62001c958160048562001e0160201b620033ca179092919060201c565b5062001cf0565b67ffffffffffffffff811162001cef5762001cd0601b60058460ff16901b178462001db860201b6200338a1790919060201c565b62001ced8160088562001e0160201b620033ca179092919060201c565b505b5b5b5b5b505050565b62001d0262001ef4565b8260200151836000015151835101111562001d435762001d4283600262001d358660200151865162001e7b60201b60201c565b0262001e9960201b60201c565b5b60008060008451905085518051602081830101945086518101825260208701935050505b6020811062001d8c578151835260208301925060208201915060208103905062001d67565b60006001826020036101000a039050801983511681855116818117865250508694505050505092915050565b8160200151600183600001515101111562001de75762001de682600284602001510262001e9960201b60201c565b5b815180516020818301018381536001820183525050505050565b62001e0b62001ef4565b83602001518460000151518301111562001e4a5762001e4984600262001e3c87602001518662001e7b60201b60201c565b0262001e9960201b60201c565b5b60006001836101000a0390508451805184818301018684198251161781528582018352505050849150509392505050565b60008183111562001e8f5782905062001e93565b8190505b92915050565b60608260000151905062001eb4838362001a9b60201b60201c565b62001ec6838262001cf860201b60201c565b50505050565b60405180608001604052806004905b606081526020019060019003908162001edb5790505090565b604051806040016040528060608152602001600081525090565b828054600181600116156101000203166002900490600052602060002090601f016020900481019282601f1062001f5157805160ff191683800117855562001f82565b8280016001018555821562001f82579182015b8281111562001f8157825182559160200191906001019062001f64565b5b50905062001f91919062001f95565b5090565b62001fba91905b8082111562001fb657600081600090555060010162001f9c565b5090565b90565b6135fe8062001fcd6000396000f3fe6080604052600436106100e85760003560e01c8063853828b61161008a578063b69ef8a811610059578063b69ef8a8146104a8578063c38a8afd146104d3578063d0e30db0146104fe578063dc34b0aa1461051c576100e8565b8063853828b6146103d45780638772ae3c146103ff5780638cf4dbfb1461043a5780638da5cb5b14610451576100e8565b806338bbfa50116100c657806338bbfa501461021f57806343d726d614610388578063797778361461039f578063799ae223146103ca576100e8565b806302e4af01146100ed57806327dc297e1461010b5780632e1a7d4d146101dd575b600080fd5b6100f5610547565b6040518082815260200191505060405180910390f35b34801561011757600080fd5b506101db6004803603604081101561012e57600080fd5b81019080803590602001909291908035906020019064010000000081111561015557600080fd5b82018360208201111561016757600080fd5b8035906020019184600183028401116401000000008311171561018957600080fd5b91908080601f016020809104026020016040519081016040528093929190818152602001838380828437600081840152601f19601f82011690508083019250505050505050919291929050505061060e565b005b610209600480360360208110156101f357600080fd5b8101908080359060200190929190505050610651565b6040518082815260200191505060405180910390f35b34801561022b57600080fd5b506103866004803603606081101561024257600080fd5b81019080803590602001909291908035906020019064010000000081111561026957600080fd5b82018360208201111561027b57600080fd5b8035906020019184600183028401116401000000008311171561029d57600080fd5b91908080601f016020809104026020016040519081016040528093929190818152602001838380828437600081840152601f19601f8201169050808301925050505050505091929192908035906020019064010000000081111561030057600080fd5b82018360208201111561031257600080fd5b8035906020019184600183028401116401000000008311171561033457600080fd5b91908080601f016020809104026020016040519081016040528093929190818152602001838380828437600081840152601f19601f820116905080830192505050505050509192919290505050610763565b005b34801561039457600080fd5b5061039d610ab1565b005b3480156103ab57600080fd5b506103b4610b8c565b6040518082815260200191505060405180910390f35b6103d2610bd8565b005b3480156103e057600080fd5b506103e9610d41565b6040518082815260200191505060405180910390f35b34801561040b57600080fd5b506104386004803603602081101561042257600080fd5b8101908080359060200190929190505050610e14565b005b34801561044657600080fd5b5061044f610ee0565b005b34801561045d57600080fd5b50610466610f7f565b604051808273ffffffffffffffffffffffffffffffffffffffff1673ffffffffffffffffffffffffffffffffffffffff16815260200191505060405180910390f35b3480156104b457600080fd5b506104bd610fa4565b6040518082815260200191505060405180910390f35b3480156104df57600080fd5b506104e8610faa565b6040518082815260200191505060405180910390f35b610506610fb0565b6040518082815260200191505060405180910390f35b34801561052857600080fd5b506105316110c5565b6040518082815260200191505060405180910390f35b600061058b6040518060400160405280600681526020017f72616e646f6d000000000000000000000000000000000000000000000000000081525062030d406110cb565b60015411610601576040517f08c379a000000000000000000000000000000000000000000000000000000000815260040180806020018281038252601d8152602001807f6e6f7420656e6f7567682066756e647320666f722070726f7661626c6500000081525060200191505060405180910390fd5b610609611468565b905090565b61064d828260006040519080825280601f01601f1916602001820160405280156106475781602001600182028038833980820191505090505b50610763565b5050565b60008060009054906101000a900473ffffffffffffffffffffffffffffffffffffffff1673ffffffffffffffffffffffffffffffffffffffff163373ffffffffffffffffffffffffffffffffffffffff1614610715576040517f08c379a00000000000000000000000000000000000000000000000000000000081526004018080602001828103825260198152602001807f6f6e6c792061636365737320666f7220746865206f776e65720000000000000081525060200191505060405180910390fd5b7fcdbda4692d85c08dcb06ba853dfb15e5ebba5ef0479978e04f493ec12c2eb1646001546040518082815260200191505060405180910390a161075882336114ec565b506001549050919050565b61076b6115af565b73ffffffffffffffffffffffffffffffffffffffff163373ffffffffffffffffffffffffffffffffffffffff161461080b576040517f08c379a00000000000000000000000000000000000000000000000000000000081526004018080602001828103825260118152602001807f696e636f7272656374206164647265737300000000000000000000000000000081525060200191505060405180910390fd5b60006002836040516020018082805190602001908083835b602083106108465780518252602082019150602081019050602083039250610823565b6001836020036101000a0380198251168184511680821785525050505050509050019150506040516020818303038152906040528051906020012060001c8161088b57fe5b069050806009819055507fc13d60fe9dffdb6908d2d446cd18134373a51db0738ee04f296eeb9128121cbc816040518082815260200191505060405180910390a16000600a60008681526020019081526020016000209050600a6000868152602001908152602001600020600080820160006101000a81549073ffffffffffffffffffffffffffffffffffffffff021916905560018201600090555050600080831490508015610a0a576002826001015402600360008460000160009054906101000a900473ffffffffffffffffffffffffffffffffffffffff1673ffffffffffffffffffffffffffffffffffffffff1673ffffffffffffffffffffffffffffffffffffffff1681526020019081526020016000205401600360008460000160009054906101000a900473ffffffffffffffffffffffffffffffffffffffff1673ffffffffffffffffffffffffffffffffffffffff1673ffffffffffffffffffffffffffffffffffffffff168152602001908152602001600020819055505b7fb4ad5da395d3bba1535d767dbfc8e03665526a0ce05f69252d142015895f28fa8260000160009054906101000a900473ffffffffffffffffffffffffffffffffffffffff16836001015483604051808473ffffffffffffffffffffffffffffffffffffffff1673ffffffffffffffffffffffffffffffffffffffff16815260200183815260200182151515158152602001935050505060405180910390a1505050505050565b6000809054906101000a900473ffffffffffffffffffffffffffffffffffffffff1673ffffffffffffffffffffffffffffffffffffffff163373ffffffffffffffffffffffffffffffffffffffff1614610b73576040517f08c379a00000000000000000000000000000000000000000000000000000000081526004018080602001828103825260198152602001807f6f6e6c792061636365737320666f7220746865206f776e65720000000000000081525060200191505060405180910390fd5b3373ffffffffffffffffffffffffffffffffffffffff16ff5b600080600360003373ffffffffffffffffffffffffffffffffffffffff1673ffffffffffffffffffffffffffffffffffffffff1681526020019081526020016000205490508091505090565b60025480341015610c34576040517f08c379a000000000000000000000000000000000000000000000000000000000815260040180806020018281038252602a81526020018061357a602a913960400191505060405180910390fd5b346001541015610c8f576040517f08c379a00000000000000000000000000000000000000000000000000000000081526004018080602001828103825260238152602001806135576023913960400191505060405180910390fd5b346001600082825401925050819055506000610ca9610547565b905060405180604001604052803373ffffffffffffffffffffffffffffffffffffffff16815260200134815250600a600083815260200190815260200160002060008201518160000160006101000a81548173ffffffffffffffffffffffffffffffffffffffff021916908373ffffffffffffffffffffffffffffffffffffffff160217905550602082015181600101559050505050565b60008060009054906101000a900473ffffffffffffffffffffffffffffffffffffffff1673ffffffffffffffffffffffffffffffffffffffff163373ffffffffffffffffffffffffffffffffffffffff1614610e05576040517f08c379a00000000000000000000000000000000000000000000000000000000081526004018080602001828103825260198152602001807f6f6e6c792061636365737320666f7220746865206f776e65720000000000000081525060200191505060405180910390fd5b610e10600154610651565b5090565b6000809054906101000a900473ffffffffffffffffffffffffffffffffffffffff1673ffffffffffffffffffffffffffffffffffffffff163373ffffffffffffffffffffffffffffffffffffffff1614610ed6576040517f08c379a00000000000000000000000000000000000000000000000000000000081526004018080602001828103825260198152602001807f6f6e6c792061636365737320666f7220746865206f776e65720000000000000081525060200191505060405180910390fd5b8060028190555050565b6000600360003373ffffffffffffffffffffffffffffffffffffffff1673ffffffffffffffffffffffffffffffffffffffff1681526020019081526020016000205490506000811115610f7c57610f3781336114ec565b50600360003373ffffffffffffffffffffffffffffffffffffffff1673ffffffffffffffffffffffffffffffffffffffff168152602001908152602001600020600090555b50565b6000809054906101000a900473ffffffffffffffffffffffffffffffffffffffff1681565b60015481565b60025481565b60008060009054906101000a900473ffffffffffffffffffffffffffffffffffffffff1673ffffffffffffffffffffffffffffffffffffffff163373ffffffffffffffffffffffffffffffffffffffff1614611074576040517f08c379a00000000000000000000000000000000000000000000000000000000081526004018080602001828103825260198152602001807f6f6e6c792061636365737320666f7220746865206f776e65720000000000000081525060200191505060405180910390fd5b7f60a44ec1e34e2d6bd511ca26c0918fe4ca6cd0e8ade53c85ef9048b355cc41996001546040518082815260200191505060405180910390a134600160008282540192505081905550600154905090565b60095481565b60008073ffffffffffffffffffffffffffffffffffffffff16600560009054906101000a900473ffffffffffffffffffffffffffffffffffffffff1673ffffffffffffffffffffffffffffffffffffffff16148061115357506000611151600560009054906101000a900473ffffffffffffffffffffffffffffffffffffffff166118cf565b145b156111645761116260006118da565b505b600560009054906101000a900473ffffffffffffffffffffffffffffffffffffffff1673ffffffffffffffffffffffffffffffffffffffff166338cc48316040518163ffffffff1660e01b8152600401602060405180830381600087803b1580156111ce57600080fd5b505af11580156111e2573d6000803e3d6000fd5b505050506040513d60208110156111f857600080fd5b810190808051906020019092919050505073ffffffffffffffffffffffffffffffffffffffff16600460009054906101000a900473ffffffffffffffffffffffffffffffffffffffff1673ffffffffffffffffffffffffffffffffffffffff161461134357600560009054906101000a900473ffffffffffffffffffffffffffffffffffffffff1673ffffffffffffffffffffffffffffffffffffffff166338cc48316040518163ffffffff1660e01b8152600401602060405180830381600087803b1580156112c757600080fd5b505af11580156112db573d6000803e3d6000fd5b505050506040513d60208110156112f157600080fd5b8101908080519060200190929190505050600460006101000a81548173ffffffffffffffffffffffffffffffffffffffff021916908373ffffffffffffffffffffffffffffffffffffffff1602179055505b600460009054906101000a900473ffffffffffffffffffffffffffffffffffffffff1673ffffffffffffffffffffffffffffffffffffffff16632ef3accc84846040518363ffffffff1660e01b81526004018080602001838152602001828103825284818151815260200191508051906020019080838360005b838110156113d85780820151818401526020810190506113bd565b50505050905090810190601f1680156114055780820380516001836020036101000a031916815260200191505b509350505050602060405180830381600087803b15801561142557600080fd5b505af1158015611439573d6000803e3d6000fd5b505050506040513d602081101561144f57600080fd5b8101908080519060200190929190505050905092915050565b60008061147b6000600162030d406118eb565b90507f94f2559b5e2b297de3db1587daf2352e872ada3dad01dab9ee3733592fa22ed36040518080602001828103825260178152602001807f50726f7661626c65207175657279207761732073656e7400000000000000000081525060200191505060405180910390a18091505090565b6000826001541015611549576040517f08c379a00000000000000000000000000000000000000000000000000000000081526004018080602001828103825260268152602001806135a46026913960400191505060405180910390fd5b6000839050836001600082825403925050819055508273ffffffffffffffffffffffffffffffffffffffff166108fc829081150290604051600060405180830381858888f193505050501580156115a4573d6000803e3d6000fd5b508091505092915050565b60008073ffffffffffffffffffffffffffffffffffffffff16600560009054906101000a900473ffffffffffffffffffffffffffffffffffffffff1673ffffffffffffffffffffffffffffffffffffffff16148061163757506000611635600560009054906101000a900473ffffffffffffffffffffffffffffffffffffffff166118cf565b145b156116485761164660006118da565b505b600560009054906101000a900473ffffffffffffffffffffffffffffffffffffffff1673ffffffffffffffffffffffffffffffffffffffff166338cc48316040518163ffffffff1660e01b8152600401602060405180830381600087803b1580156116b257600080fd5b505af11580156116c6573d6000803e3d6000fd5b505050506040513d60208110156116dc57600080fd5b810190808051906020019092919050505073ffffffffffffffffffffffffffffffffffffffff16600460009054906101000a900473ffffffffffffffffffffffffffffffffffffffff1673ffffffffffffffffffffffffffffffffffffffff161461182757600560009054906101000a900473ffffffffffffffffffffffffffffffffffffffff1673ffffffffffffffffffffffffffffffffffffffff166338cc48316040518163ffffffff1660e01b8152600401602060405180830381600087803b1580156117ab57600080fd5b505af11580156117bf573d6000803e3d6000fd5b505050506040513d60208110156117d557600080fd5b8101908080519060200190929190505050600460006101000a81548173ffffffffffffffffffffffffffffffffffffffff021916908373ffffffffffffffffffffffffffffffffffffffff1602179055505b600460009054906101000a900473ffffffffffffffffffffffffffffffffffffffff1673ffffffffffffffffffffffffffffffffffffffff1663c281d19e6040518163ffffffff1660e01b815260040160206040518083038186803b15801561188f57600080fd5b505afa1580156118a3573d6000803e3d6000fd5b505050506040513d60208110156118b957600080fd5b8101908080519060200190929190505050905090565b6000813b9050919050565b60006118e4611e86565b9050919050565b600080831180156118fd575060208311155b61190657600080fd5b600a84029350606060016040519080825280601f01601f1916602001820160405280156119425781602001600182028038833980820191505090505b5090508360f81b8160008151811061195657fe5b60200101907effffffffffffffffffffffffffffffffffffffffffffffffffffffffffffff1916908160001a905350606060206040519080825280601f01601f1916602001820160405280156119bb5781602001600182028038833980820191505090505b509050606060206040519080825280601f01601f1916602001820160405280156119f45781602001600182028038833980820191505090505b5090506000611a016123dd565b905060208352424118600143034018602084015260208252806020830152606060206040519080825280601f01601f191660200182016040528015611a555781602001600182028038833980820191505090505b509050886020820152606060086040519080825280601f01601f191660200182016040528015611a945781602001600182028038833980820191505090505b509050611aa782601860088460006126fd565b50611ab0613470565b60405180608001604052808781526020018881526020018681526020018481525090506000611b156040518060400160405280600681526020017f72616e646f6d0000000000000000000000000000000000000000000000000000815250838c61275c565b9050606060086040519080825280601f01601f191660200182016040528015611b4d5781602001600182028038833980820191505090505b50905060208401517f0100000000000000000000000000000000000000000000000000000000000000810460278301537e01000000000000000000000000000000000000000000000000000000000000810460268301537d010000000000000000000000000000000000000000000000000000000000810460258301537c0100000000000000000000000000000000000000000000000000000000810460248301537b01000000000000000000000000000000000000000000000000000000810460238301537a010000000000000000000000000000000000000000000000000000810460228301537901000000000000000000000000000000000000000000000000008104602183015378010000000000000000000000000000000000000000000000008104602083015350611e73828285600160048110611c8c57fe5b6020020151600287600060048110611ca057fe5b60200201516040518082805190602001908083835b60208310611cd85780518252602082019150602081019050602083039250611cb5565b6001836020036101000a038019825116818451168082178552505050505050905001915050602060405180830381855afa158015611d1a573d6000803e3d6000fd5b5050506040513d6020811015611d2f57600080fd5b810190808051906020019092919050505087600260048110611d4d57fe5b60200201516040516020018085805190602001908083835b60208310611d885780518252602082019150602081019050602083039250611d65565b6001836020036101000a03801982511681845116808217855250505050505090500184805190602001908083835b60208310611dd95780518252602082019150602081019050602083039250611db6565b6001836020036101000a03801982511681845116808217855250505050505090500183815260200182805190602001908083835b60208310611e305780518252602082019150602081019050602083039250611e0d565b6001836020036101000a03801982511681845116808217855250505050505090500194505050505060405160208183030381529060405280519060200120612acb565b8199505050505050505050509392505050565b600080611ea6731d3b2638a7cc9f2cb3d298a3da7a90b67e5506ed6118cf565b1115611f4857731d3b2638a7cc9f2cb3d298a3da7a90b67e5506ed600560006101000a81548173ffffffffffffffffffffffffffffffffffffffff021916908373ffffffffffffffffffffffffffffffffffffffff160217905550611f3f6040518060400160405280600b81526020017f6574685f6d61696e6e6574000000000000000000000000000000000000000000815250612ae7565b600190506123da565b6000611f6773c03a2615d5efaf5f49f60b7bb6583eaec212fdf16118cf565b11156120095773c03a2615d5efaf5f49f60b7bb6583eaec212fdf1600560006101000a81548173ffffffffffffffffffffffffffffffffffffffff021916908373ffffffffffffffffffffffffffffffffffffffff1602179055506120006040518060400160405280600c81526020017f6574685f726f707374656e330000000000000000000000000000000000000000815250612ae7565b600190506123da565b600061202873b7a07bcf2ba2f2703b24c0691b5278999c59ac7e6118cf565b11156120ca5773b7a07bcf2ba2f2703b24c0691b5278999c59ac7e600560006101000a81548173ffffffffffffffffffffffffffffffffffffffff021916908373ffffffffffffffffffffffffffffffffffffffff1602179055506120c16040518060400160405280600981526020017f6574685f6b6f76616e0000000000000000000000000000000000000000000000815250612ae7565b600190506123da565b60006120e973146500cfd35b22e4a392fe0adc06de1a1368ed486118cf565b111561218b5773146500cfd35b22e4a392fe0adc06de1a1368ed48600560006101000a81548173ffffffffffffffffffffffffffffffffffffffff021916908373ffffffffffffffffffffffffffffffffffffffff1602179055506121826040518060400160405280600b81526020017f6574685f72696e6b656279000000000000000000000000000000000000000000815250612ae7565b600190506123da565b60006121aa73a2998efd205fb9d4b4963afb70778d6354ad3a416118cf565b111561224c5773a2998efd205fb9d4b4963afb70778d6354ad3a41600560006101000a81548173ffffffffffffffffffffffffffffffffffffffff021916908373ffffffffffffffffffffffffffffffffffffffff1602179055506122436040518060400160405280600a81526020017f6574685f676f65726c6900000000000000000000000000000000000000000000815250612ae7565b600190506123da565b600061226b736f485c8bf6fc43ea212e93bbf8ce046c7f1cb4756118cf565b11156122cf57736f485c8bf6fc43ea212e93bbf8ce046c7f1cb475600560006101000a81548173ffffffffffffffffffffffffffffffffffffffff021916908373ffffffffffffffffffffffffffffffffffffffff160217905550600190506123da565b60006122ee7320e12a1f859b3feae5fb2a0a32c18f5a65555bbf6118cf565b1115612352577320e12a1f859b3feae5fb2a0a32c18f5a65555bbf600560006101000a81548173ffffffffffffffffffffffffffffffffffffffff021916908373ffffffffffffffffffffffffffffffffffffffff160217905550600190506123da565b60006123717351efaf4c8b3c9afbd5ab9f4bbc82784ab6ef8faa6118cf565b11156123d5577351efaf4c8b3c9afbd5ab9f4bbc82784ab6ef8faa600560006101000a81548173ffffffffffffffffffffffffffffffffffffffff021916908373ffffffffffffffffffffffffffffffffffffffff160217905550600190506123da565b600090505b90565b60008073ffffffffffffffffffffffffffffffffffffffff16600560009054906101000a900473ffffffffffffffffffffffffffffffffffffffff1673ffffffffffffffffffffffffffffffffffffffff16148061246557506000612463600560009054906101000a900473ffffffffffffffffffffffffffffffffffffffff166118cf565b145b156124765761247460006118da565b505b600560009054906101000a900473ffffffffffffffffffffffffffffffffffffffff1673ffffffffffffffffffffffffffffffffffffffff166338cc48316040518163ffffffff1660e01b8152600401602060405180830381600087803b1580156124e057600080fd5b505af11580156124f4573d6000803e3d6000fd5b505050506040513d602081101561250a57600080fd5b810190808051906020019092919050505073ffffffffffffffffffffffffffffffffffffffff16600460009054906101000a900473ffffffffffffffffffffffffffffffffffffffff1673ffffffffffffffffffffffffffffffffffffffff161461265557600560009054906101000a900473ffffffffffffffffffffffffffffffffffffffff1673ffffffffffffffffffffffffffffffffffffffff166338cc48316040518163ffffffff1660e01b8152600401602060405180830381600087803b1580156125d957600080fd5b505af11580156125ed573d6000803e3d6000fd5b505050506040513d602081101561260357600080fd5b8101908080519060200190929190505050600460006101000a81548173ffffffffffffffffffffffffffffffffffffffff021916908373ffffffffffffffffffffffffffffffffffffffff1602179055505b600460009054906101000a900473ffffffffffffffffffffffffffffffffffffffff1673ffffffffffffffffffffffffffffffffffffffff1663abaa5f3e6040518163ffffffff1660e01b815260040160206040518083038186803b1580156126bd57600080fd5b505afa1580156126d1573d6000803e3d6000fd5b505050506040513d60208110156126e757600080fd5b8101908080519060200190929190505050905090565b606060008285019050808451101561271457600080fd5b600086602001905060008460200190505b86886020010182101561274d5781890151808288015250602082019150602081019050612725565b85935050505095945050505050565b60008073ffffffffffffffffffffffffffffffffffffffff16600560009054906101000a900473ffffffffffffffffffffffffffffffffffffffff1673ffffffffffffffffffffffffffffffffffffffff1614806127e4575060006127e2600560009054906101000a900473ffffffffffffffffffffffffffffffffffffffff166118cf565b145b156127f5576127f360006118da565b505b600560009054906101000a900473ffffffffffffffffffffffffffffffffffffffff1673ffffffffffffffffffffffffffffffffffffffff166338cc48316040518163ffffffff1660e01b8152600401602060405180830381600087803b15801561285f57600080fd5b505af1158015612873573d6000803e3d6000fd5b505050506040513d602081101561288957600080fd5b810190808051906020019092919050505073ffffffffffffffffffffffffffffffffffffffff16600460009054906101000a900473ffffffffffffffffffffffffffffffffffffffff1673ffffffffffffffffffffffffffffffffffffffff16146129d457600560009054906101000a900473ffffffffffffffffffffffffffffffffffffffff1673ffffffffffffffffffffffffffffffffffffffff166338cc48316040518163ffffffff1660e01b8152600401602060405180830381600087803b15801561295857600080fd5b505af115801561296c573d6000803e3d6000fd5b505050506040513d602081101561298257600080fd5b8101908080519060200190929190505050600460006101000a81548173ffffffffffffffffffffffffffffffffffffffff021916908373ffffffffffffffffffffffffffffffffffffffff1602179055505b60606004604051908082528060200260200182016040528015612a0b57816020015b60608152602001906001900390816129f65790505b50905083600060048110612a1b57fe5b602002015181600081518110612a2d57fe5b602002602001018190525083600160048110612a4557fe5b602002015181600181518110612a5757fe5b602002602001018190525083600260048110612a6f57fe5b602002015181600281518110612a8157fe5b602002602001018190525083600360048110612a9957fe5b602002015181600381518110612aab57fe5b6020026020010181905250612ac1858285612b01565b9150509392505050565b8060076000848152602001908152602001600020819055505050565b8060069080519060200190612afd929190613497565b5050565b60008073ffffffffffffffffffffffffffffffffffffffff16600560009054906101000a900473ffffffffffffffffffffffffffffffffffffffff1673ffffffffffffffffffffffffffffffffffffffff161480612b8957506000612b87600560009054906101000a900473ffffffffffffffffffffffffffffffffffffffff166118cf565b145b15612b9a57612b9860006118da565b505b600560009054906101000a900473ffffffffffffffffffffffffffffffffffffffff1673ffffffffffffffffffffffffffffffffffffffff166338cc48316040518163ffffffff1660e01b8152600401602060405180830381600087803b158015612c0457600080fd5b505af1158015612c18573d6000803e3d6000fd5b505050506040513d6020811015612c2e57600080fd5b810190808051906020019092919050505073ffffffffffffffffffffffffffffffffffffffff16600460009054906101000a900473ffffffffffffffffffffffffffffffffffffffff1673ffffffffffffffffffffffffffffffffffffffff1614612d7957600560009054906101000a900473ffffffffffffffffffffffffffffffffffffffff1673ffffffffffffffffffffffffffffffffffffffff166338cc48316040518163ffffffff1660e01b8152600401602060405180830381600087803b158015612cfd57600080fd5b505af1158015612d11573d6000803e3d6000fd5b505050506040513d6020811015612d2757600080fd5b8101908080519060200190929190505050600460006101000a81548173ffffffffffffffffffffffffffffffffffffffff021916908373ffffffffffffffffffffffffffffffffffffffff1602179055505b6000600460009054906101000a900473ffffffffffffffffffffffffffffffffffffffff1673ffffffffffffffffffffffffffffffffffffffff16632ef3accc86856040518363ffffffff1660e01b81526004018080602001838152602001828103825284818151815260200191508051906020019080838360005b83811015612e10578082015181840152602081019050612df5565b50505050905090810190601f168015612e3d5780820380516001836020036101000a031916815260200191505b509350505050602060405180830381600087803b158015612e5d57600080fd5b505af1158015612e71573d6000803e3d6000fd5b505050506040513d6020811015612e8757600080fd5b81019080805190602001909291905050509050823a02670de0b6b3a764000001811115612eba576000801b915050613060565b6060612ec585613067565b9050600460009054906101000a900473ffffffffffffffffffffffffffffffffffffffff1673ffffffffffffffffffffffffffffffffffffffff1663c55c1cb68360008985896040518663ffffffff1660e01b8152600401808581526020018060200180602001848152602001838103835286818151815260200191508051906020019080838360005b83811015612f6a578082015181840152602081019050612f4f565b50505050905090810190601f168015612f975780820380516001836020036101000a031916815260200191505b50838103825285818151815260200191508051906020019080838360005b83811015612fd0578082015181840152602081019050612fb5565b50505050905090810190601f168015612ffd5780820380516001836020036101000a031916815260200191505b5096505050505050506020604051808303818588803b15801561301f57600080fd5b505af1158015613033573d6000803e3d6000fd5b50505050506040513d602081101561304a57600080fd5b8101908080519060200190929190505050925050505b9392505050565b60606130716130e7565b613079613517565b613085816104006130f3565b61308e8161313d565b60008090505b83518110156130d0576130c38482815181106130ac57fe5b60200260200101518361314b90919063ffffffff16565b8080600101915050613094565b506130da81613170565b8060000151915050919050565b60405180590338823950565b600081905060006020828161310457fe5b061461311d576020818161311457fe5b06602003810190505b808360200181815250506040518084526000815281810160405250505050565b61314881600461317e565b50565b613158826002835161319f565b61316b81836132df90919063ffffffff16565b505050565b61317b81600761317e565b50565b61319b601f60058360ff16901b178361338a90919063ffffffff16565b5050565b601781116131cb576131c68160058460ff16901b60ff16178461338a90919063ffffffff16565b6132da565b60ff811161320c576131f0601860058460ff16901b178461338a90919063ffffffff16565b613206816001856133ca9092919063ffffffff16565b506132d9565b61ffff811161324e57613232601960058460ff16901b178461338a90919063ffffffff16565b613248816002856133ca9092919063ffffffff16565b506132d8565b63ffffffff811161329257613276601a60058460ff16901b178461338a90919063ffffffff16565b61328c816004856133ca9092919063ffffffff16565b506132d7565b67ffffffffffffffff81116132d6576132be601b60058460ff16901b178461338a90919063ffffffff16565b6132d4816008856133ca9092919063ffffffff16565b505b5b5b5b5b505050565b6132e7613517565b826020015183600001515183510111156133175761331683600261331086602001518651613431565b0261344d565b5b60008060008451905085518051602081830101945086518101825260208701935050505b6020811061335e578151835260208301925060208201915060208103905061333b565b60006001826020036101000a039050801983511681855116818117865250508694505050505092915050565b816020015160018360000151510111156133b0576133af82600284602001510261344d565b5b815180516020818301018381536001820183525050505050565b6133d2613517565b836020015184600001515183011115613400576133ff8460026133f9876020015186613431565b0261344d565b5b60006001836101000a0390508451805184818301018684198251161781528582018352505050849150509392505050565b60008183111561344357829050613447565b8190505b92915050565b60608260000151905061346083836130f3565b61346a83826132df565b50505050565b60405180608001604052806004905b606081526020019060019003908161347f5790505090565b828054600181600116156101000203166002900490600052602060002090601f016020900481019282601f106134d857805160ff1916838001178555613506565b82800160010185558215613506579182015b828111156135055782518255916020019190600101906134ea565b5b5090506135139190613531565b5090565b604051806040016040528060608152602001600081525090565b61355391905b8082111561354f576000816000905550600101613537565b5090565b9056fe736f7272792c206e6f7420656e6f756768206d6f6e657920696e207468652062616e6b6e6f7420656e6f7567682066756e6473207472616e7361637465642c206e656564206174206c656173744e6f7420656e6f7567682066756e647320696e207468652062616e6b20746f207061796f7574a265627a7a7231582021c426cf761e9701318635dde56159514ebe9057ba88c85ca1b92f6da973bf3e64736f6c634300050c0032",
  "source": "pragma solidity 0.5.12;\n\nimport \"./Ownable.sol\";\nimport \"./Bank.sol\";\nimport \"./provableAPI.sol\";\n\ncontract CoinFlip is Ownable, Bank, usingProvable {\n    struct Bet {\n        address sender;\n        uint256 bet;\n    }\n\n    event coinFlipResult(address caller, uint256 amount, bool won);\n    event logNewProvableQuery(string message);\n    event generatedRandomNumber(uint256 number);\n\n    uint256 constant MAX_INT_FROM_BYTE = 256;\n    uint256 constant NUM_RANDOM_BYTES_REQUESTED = 1;\n    uint256 constant QUERY_EXECUTION_DELAY = 0;\n    uint256 constant GAS_FOR_CALLBACK = 200000;\n\n    uint256 public latestNumber;\n\n    mapping(bytes32 => Bet) private pendingQueries;\n\n    constructor() public {\n        _generateRandom();\n    }\n\n    function flipCoin() public payable costs(minimumBet) {\n        require(balance >= msg.value, \"sorry, not enough money in the bank\");\n        balance += msg.value;\n\n        bytes32 queryId = generateRandom();\n\n        pendingQueries[queryId] = Bet(msg.sender, msg.value);\n    }\n\n    function __callback(\n        bytes32 _queryId,\n        string memory _result,\n        bytes memory _proof\n    ) public {\n        require(msg.sender == provable_cbAddress(), \"incorrect address\");\n        uint256 randomNumber = uint256(keccak256(abi.encodePacked(_result))) %\n            2;\n\n        latestNumber = randomNumber;\n        emit generatedRandomNumber(randomNumber);\n\n        Bet storage bet = pendingQueries[_queryId];\n        delete pendingQueries[_queryId];\n        bool hasWon = randomNumber == 0;\n\n        if (hasWon) {\n            balancesToBeCollected[bet.sender] =\n                balancesToBeCollected[bet.sender] +\n                bet.bet *\n                2;\n        }\n\n        emit coinFlipResult(bet.sender, bet.bet, hasWon);\n    }\n\n    function generateRandom() public payable returns (bytes32) {\n        require(\n            balance > provable_getPrice(\"random\", GAS_FOR_CALLBACK),\n            \"not enough funds for provable\"\n        );\n\n        return _generateRandom();\n    }\n\n    function _generateRandom() private returns (bytes32) {\n        bytes32 queryId = provable_newRandomDSQuery(\n            QUERY_EXECUTION_DELAY,\n            NUM_RANDOM_BYTES_REQUESTED,\n            GAS_FOR_CALLBACK\n        );\n\n        emit logNewProvableQuery(\"Provable query was sent\");\n        return queryId;\n    }\n}\n",
  "sourcePath": "/Users/ernowever/Development/Ethereum 201/CoinFlip/smart-contracts/contracts/CoinFlip.sol",
  "compiler": {
    "name": "solc",
    "version": "0.5.12+commit.7709ece9.Emscripten.clang"
  },
  "schemaVersion": "3.0.23",
  "updatedAt": "2020-06-13T16:44:04.808Z",
  "networkType": "ethereum",
  "devdoc": {
    "methods": {
      "__callback(bytes32,string)": {
        "details": "The following `__callback` functions are just placeholders ideally     meant to be defined in child contract when proofs are used.     The function bodies simply silence compiler warnings."
      }
    }
  },
  "userdoc": {
    "methods": {}
  }
}