{
  "contractName": "CoinFlip",
  "abi": [
    {
      "inputs": [],
      "payable": false,
      "stateMutability": "nonpayable",
      "type": "constructor"
    },
    {
      "anonymous": false,
      "inputs": [
        {
          "indexed": false,
          "internalType": "address",
          "name": "caller",
          "type": "address"
        },
        {
          "indexed": false,
          "internalType": "uint256",
          "name": "amount",
          "type": "uint256"
        },
        {
          "indexed": false,
          "internalType": "bool",
          "name": "won",
          "type": "bool"
        }
      ],
      "name": "CoinFlipResult",
      "type": "event"
    },
    {
      "anonymous": false,
      "inputs": [
        {
          "indexed": false,
          "internalType": "uint256",
          "name": "number",
          "type": "uint256"
        }
      ],
      "name": "GeneratedRandomNumber",
      "type": "event"
    },
    {
      "anonymous": false,
      "inputs": [
        {
          "indexed": false,
          "internalType": "string",
          "name": "message",
          "type": "string"
        }
      ],
      "name": "LogNewProvableQuery",
      "type": "event"
    },
    {
      "anonymous": false,
      "inputs": [
        {
          "indexed": false,
          "internalType": "uint256",
          "name": "balance",
          "type": "uint256"
        }
      ],
      "name": "contractDeposit",
      "type": "event"
    },
    {
      "anonymous": false,
      "inputs": [
        {
          "indexed": false,
          "internalType": "uint256",
          "name": "balance",
          "type": "uint256"
        }
      ],
      "name": "contractWithdrawal",
      "type": "event"
    },
    {
      "constant": true,
      "inputs": [],
      "name": "balance",
      "outputs": [
        {
          "internalType": "uint256",
          "name": "",
          "type": "uint256"
        }
      ],
      "payable": false,
      "stateMutability": "view",
      "type": "function"
    },
    {
      "constant": false,
      "inputs": [],
      "name": "close",
      "outputs": [],
      "payable": false,
      "stateMutability": "nonpayable",
      "type": "function"
    },
    {
      "constant": false,
      "inputs": [],
      "name": "collectBalance",
      "outputs": [],
      "payable": false,
      "stateMutability": "nonpayable",
      "type": "function"
    },
    {
      "constant": false,
      "inputs": [],
      "name": "deposit",
      "outputs": [
        {
          "internalType": "uint256",
          "name": "",
          "type": "uint256"
        }
      ],
      "payable": true,
      "stateMutability": "payable",
      "type": "function"
    },
    {
      "constant": true,
      "inputs": [],
      "name": "latestNumber",
      "outputs": [
        {
          "internalType": "uint256",
          "name": "",
          "type": "uint256"
        }
      ],
      "payable": false,
      "stateMutability": "view",
      "type": "function"
    },
    {
      "constant": true,
      "inputs": [],
      "name": "minimumBet",
      "outputs": [
        {
          "internalType": "uint256",
          "name": "",
          "type": "uint256"
        }
      ],
      "payable": false,
      "stateMutability": "view",
      "type": "function"
    },
    {
      "constant": true,
      "inputs": [],
      "name": "myBalanceToBeCollected",
      "outputs": [
        {
          "internalType": "uint256",
          "name": "",
          "type": "uint256"
        }
      ],
      "payable": false,
      "stateMutability": "view",
      "type": "function"
    },
    {
      "constant": true,
      "inputs": [],
      "name": "owner",
      "outputs": [
        {
          "internalType": "address",
          "name": "",
          "type": "address"
        }
      ],
      "payable": false,
      "stateMutability": "view",
      "type": "function"
    },
    {
      "constant": false,
      "inputs": [
        {
          "internalType": "uint256",
          "name": "newMinumumBet",
          "type": "uint256"
        }
      ],
      "name": "setMinimumBet",
      "outputs": [],
      "payable": false,
      "stateMutability": "nonpayable",
      "type": "function"
    },
    {
      "constant": false,
      "inputs": [
        {
          "internalType": "uint256",
          "name": "amount",
          "type": "uint256"
        }
      ],
      "name": "withdraw",
      "outputs": [
        {
          "internalType": "uint256",
          "name": "",
          "type": "uint256"
        }
      ],
      "payable": true,
      "stateMutability": "payable",
      "type": "function"
    },
    {
      "constant": false,
      "inputs": [],
      "name": "withdrawAll",
      "outputs": [
        {
          "internalType": "uint256",
          "name": "",
          "type": "uint256"
        }
      ],
      "payable": false,
      "stateMutability": "nonpayable",
      "type": "function"
    },
    {
      "constant": false,
      "inputs": [],
      "name": "flipCoin",
      "outputs": [],
      "payable": true,
      "stateMutability": "payable",
      "type": "function"
    },
    {
      "constant": false,
      "inputs": [
        {
          "internalType": "bytes32",
          "name": "_myid",
          "type": "bytes32"
        },
        {
          "internalType": "string",
          "name": "_result",
          "type": "string"
        }
      ],
      "name": "__callback",
      "outputs": [],
      "payable": false,
      "stateMutability": "nonpayable",
      "type": "function"
    },
    {
      "constant": false,
      "inputs": [
        {
          "internalType": "bytes32",
          "name": "_queryId",
          "type": "bytes32"
        },
        {
          "internalType": "string",
          "name": "_result",
          "type": "string"
        },
        {
          "internalType": "bytes",
          "name": "_proof",
          "type": "bytes"
        }
      ],
      "name": "__callback",
      "outputs": [],
      "payable": false,
      "stateMutability": "nonpayable",
      "type": "function"
    },
    {
      "constant": false,
      "inputs": [],
      "name": "generateRandom",
      "outputs": [
        {
          "internalType": "bytes32",
          "name": "",
          "type": "bytes32"
        }
      ],
      "payable": true,
      "stateMutability": "payable",
      "type": "function"
    }
  ],
  "bytecode": "0x6080604052655af3107a40006002553480156200001b57600080fd5b50336000806101000a81548173ffffffffffffffffffffffffffffffffffffffff021916908373ffffffffffffffffffffffffffffffffffffffff16021790555034600181905550620000736200007a60201b60201c565b5062001fc9565b60008060009050600062030d40905060006200009f836001846200011260201b60201c565b90507fc4dc360d0a9c0677a3379ae0a3d81e887f761e65fdf3d7e00859d1bcd3c473896040518080602001828103825260178152602001807f50726f7661626c65207175657279207761732073656e7400000000000000000081525060200191505060405180910390a180935050505090565b6000808311801562000125575060208311155b6200012f57600080fd5b600a84029350606060016040519080825280601f01601f1916602001820160405280156200016c5781602001600182028038833980820191505090505b5090508360f81b816000815181106200018157fe5b60200101907effffffffffffffffffffffffffffffffffffffffffffffffffffffffffffff1916908160001a905350606060206040519080825280601f01601f191660200182016040528015620001e75781602001600182028038833980820191505090505b509050606060206040519080825280601f01601f191660200182016040528015620002215781602001600182028038833980820191505090505b509050600062000236620006e560201b60201c565b905060208352424118600143034018602084015260208252806020830152606060206040519080825280601f01601f1916602001820160405280156200028b5781602001600182028038833980820191505090505b509050886020820152606060086040519080825280601f01601f191660200182016040528015620002cb5781602001600182028038833980820191505090505b509050620002e6826018600884600062000a2160201b60201c565b50620002f162001ed8565b604051806080016040528087815260200188815260200186815260200184815250905060006200035e6040518060400160405280600681526020017f72616e646f6d0000000000000000000000000000000000000000000000000000815250838c62000a8360201b60201c565b9050606060086040519080825280601f01601f191660200182016040528015620003975781602001600182028038833980820191505090505b50905060208401517f0100000000000000000000000000000000000000000000000000000000000000810460278301537e01000000000000000000000000000000000000000000000000000000000000810460268301537d010000000000000000000000000000000000000000000000000000000000810460258301537c0100000000000000000000000000000000000000000000000000000000810460248301537b01000000000000000000000000000000000000000000000000000000810460238301537a010000000000000000000000000000000000000000000000000000810460228301537901000000000000000000000000000000000000000000000000008104602183015378010000000000000000000000000000000000000000000000008104602083015350620006d2828285600160048110620004d857fe5b6020020151600287600060048110620004ed57fe5b60200201516040518082805190602001908083835b6020831062000527578051825260208201915060208101905060208303925062000502565b6001836020036101000a038019825116818451168082178552505050505050905001915050602060405180830381855afa1580156200056a573d6000803e3d6000fd5b5050506040513d60208110156200058057600080fd5b8101908080519060200190929190505050876002600481106200059f57fe5b60200201516040516020018085805190602001908083835b60208310620005dc5780518252602082019150602081019050602083039250620005b7565b6001836020036101000a03801982511681845116808217855250505050505090500184805190602001908083835b602083106200062f57805182526020820191506020810190506020830392506200060a565b6001836020036101000a03801982511681845116808217855250505050505090500183815260200182805190602001908083835b6020831062000688578051825260208201915060208101905060208303925062000663565b6001836020036101000a0380198251168184511680821785525050505050509050019450505050506040516020818303038152906040528051906020012062000e1d60201b60201c565b8199505050505050505050509392505050565b60008073ffffffffffffffffffffffffffffffffffffffff16600560009054906101000a900473ffffffffffffffffffffffffffffffffffffffff1673ffffffffffffffffffffffffffffffffffffffff161480620007765750600062000774600560009054906101000a900473ffffffffffffffffffffffffffffffffffffffff1662000e3960201b60201c565b145b1562000790576200078e600062000e4460201b60201c565b505b600560009054906101000a900473ffffffffffffffffffffffffffffffffffffffff1673ffffffffffffffffffffffffffffffffffffffff166338cc48316040518163ffffffff1660e01b8152600401602060405180830381600087803b158015620007fb57600080fd5b505af115801562000810573d6000803e3d6000fd5b505050506040513d60208110156200082757600080fd5b810190808051906020019092919050505073ffffffffffffffffffffffffffffffffffffffff16600460009054906101000a900473ffffffffffffffffffffffffffffffffffffffff1673ffffffffffffffffffffffffffffffffffffffff16146200097657600560009054906101000a900473ffffffffffffffffffffffffffffffffffffffff1673ffffffffffffffffffffffffffffffffffffffff166338cc48316040518163ffffffff1660e01b8152600401602060405180830381600087803b158015620008f857600080fd5b505af11580156200090d573d6000803e3d6000fd5b505050506040513d60208110156200092457600080fd5b8101908080519060200190929190505050600460006101000a81548173ffffffffffffffffffffffffffffffffffffffff021916908373ffffffffffffffffffffffffffffffffffffffff1602179055505b600460009054906101000a900473ffffffffffffffffffffffffffffffffffffffff1673ffffffffffffffffffffffffffffffffffffffff1663abaa5f3e6040518163ffffffff1660e01b815260040160206040518083038186803b158015620009df57600080fd5b505afa158015620009f4573d6000803e3d6000fd5b505050506040513d602081101562000a0b57600080fd5b8101908080519060200190929190505050905090565b606060008285019050808451101562000a3957600080fd5b600086602001905060008460200190505b86886020010182101562000a74578189015180828801525060208201915060208101905062000a4a565b85935050505095945050505050565b60008073ffffffffffffffffffffffffffffffffffffffff16600560009054906101000a900473ffffffffffffffffffffffffffffffffffffffff1673ffffffffffffffffffffffffffffffffffffffff16148062000b145750600062000b12600560009054906101000a900473ffffffffffffffffffffffffffffffffffffffff1662000e3960201b60201c565b145b1562000b2e5762000b2c600062000e4460201b60201c565b505b600560009054906101000a900473ffffffffffffffffffffffffffffffffffffffff1673ffffffffffffffffffffffffffffffffffffffff166338cc48316040518163ffffffff1660e01b8152600401602060405180830381600087803b15801562000b9957600080fd5b505af115801562000bae573d6000803e3d6000fd5b505050506040513d602081101562000bc557600080fd5b810190808051906020019092919050505073ffffffffffffffffffffffffffffffffffffffff16600460009054906101000a900473ffffffffffffffffffffffffffffffffffffffff1673ffffffffffffffffffffffffffffffffffffffff161462000d1457600560009054906101000a900473ffffffffffffffffffffffffffffffffffffffff1673ffffffffffffffffffffffffffffffffffffffff166338cc48316040518163ffffffff1660e01b8152600401602060405180830381600087803b15801562000c9657600080fd5b505af115801562000cab573d6000803e3d6000fd5b505050506040513d602081101562000cc257600080fd5b8101908080519060200190929190505050600460006101000a81548173ffffffffffffffffffffffffffffffffffffffff021916908373ffffffffffffffffffffffffffffffffffffffff1602179055505b6060600460405190808252806020026020018201604052801562000d4d57816020015b606081526020019060019003908162000d375790505b5090508360006004811062000d5e57fe5b60200201518160008151811062000d7157fe5b60200260200101819052508360016004811062000d8a57fe5b60200201518160018151811062000d9d57fe5b60200260200101819052508360026004811062000db657fe5b60200201518160028151811062000dc957fe5b60200260200101819052508360036004811062000de257fe5b60200201518160038151811062000df557fe5b602002602001018190525062000e1385828562000e5d60201b60201c565b9150509392505050565b8060076000848152602001908152602001600020819055505050565b6000813b9050919050565b600062000e56620013f560201b60201c565b9050919050565b60008073ffffffffffffffffffffffffffffffffffffffff16600560009054906101000a900473ffffffffffffffffffffffffffffffffffffffff1673ffffffffffffffffffffffffffffffffffffffff16148062000eee5750600062000eec600560009054906101000a900473ffffffffffffffffffffffffffffffffffffffff1662000e3960201b60201c565b145b1562000f085762000f06600062000e4460201b60201c565b505b600560009054906101000a900473ffffffffffffffffffffffffffffffffffffffff1673ffffffffffffffffffffffffffffffffffffffff166338cc48316040518163ffffffff1660e01b8152600401602060405180830381600087803b15801562000f7357600080fd5b505af115801562000f88573d6000803e3d6000fd5b505050506040513d602081101562000f9f57600080fd5b810190808051906020019092919050505073ffffffffffffffffffffffffffffffffffffffff16600460009054906101000a900473ffffffffffffffffffffffffffffffffffffffff1673ffffffffffffffffffffffffffffffffffffffff1614620010ee57600560009054906101000a900473ffffffffffffffffffffffffffffffffffffffff1673ffffffffffffffffffffffffffffffffffffffff166338cc48316040518163ffffffff1660e01b8152600401602060405180830381600087803b1580156200107057600080fd5b505af115801562001085573d6000803e3d6000fd5b505050506040513d60208110156200109c57600080fd5b8101908080519060200190929190505050600460006101000a81548173ffffffffffffffffffffffffffffffffffffffff021916908373ffffffffffffffffffffffffffffffffffffffff1602179055505b6000600460009054906101000a900473ffffffffffffffffffffffffffffffffffffffff1673ffffffffffffffffffffffffffffffffffffffff16632ef3accc86856040518363ffffffff1660e01b81526004018080602001838152602001828103825284818151815260200191508051906020019080838360005b83811015620011875780820151818401526020810190506200116a565b50505050905090810190601f168015620011b55780820380516001836020036101000a031916815260200191505b509350505050602060405180830381600087803b158015620011d657600080fd5b505af1158015620011eb573d6000803e3d6000fd5b505050506040513d60208110156200120257600080fd5b81019080805190602001909291905050509050823a02670de0b6b3a76400000181111562001237576000801b915050620013ee565b60606200124a85620019c460201b60201c565b9050600460009054906101000a900473ffffffffffffffffffffffffffffffffffffffff1673ffffffffffffffffffffffffffffffffffffffff1663c55c1cb68360008985896040518663ffffffff1660e01b8152600401808581526020018060200180602001848152602001838103835286818151815260200191508051906020019080838360005b83811015620012f1578082015181840152602081019050620012d4565b50505050905090810190601f1680156200131f5780820380516001836020036101000a031916815260200191505b50838103825285818151815260200191508051906020019080838360005b838110156200135a5780820151818401526020810190506200133d565b50505050905090810190601f168015620013885780820380516001836020036101000a031916815260200191505b5096505050505050506020604051808303818588803b158015620013ab57600080fd5b505af1158015620013c0573d6000803e3d6000fd5b50505050506040513d6020811015620013d857600080fd5b8101908080519060200190929190505050925050505b9392505050565b6000806200141d731d3b2638a7cc9f2cb3d298a3da7a90b67e5506ed62000e3960201b60201c565b1115620014c957731d3b2638a7cc9f2cb3d298a3da7a90b67e5506ed600560006101000a81548173ffffffffffffffffffffffffffffffffffffffff021916908373ffffffffffffffffffffffffffffffffffffffff160217905550620014bf6040518060400160405280600b81526020017f6574685f6d61696e6e657400000000000000000000000000000000000000000081525062001a7f60201b60201c565b60019050620019c1565b6000620014f073c03a2615d5efaf5f49f60b7bb6583eaec212fdf162000e3960201b60201c565b11156200159c5773c03a2615d5efaf5f49f60b7bb6583eaec212fdf1600560006101000a81548173ffffffffffffffffffffffffffffffffffffffff021916908373ffffffffffffffffffffffffffffffffffffffff160217905550620015926040518060400160405280600c81526020017f6574685f726f707374656e33000000000000000000000000000000000000000081525062001a7f60201b60201c565b60019050620019c1565b6000620015c373b7a07bcf2ba2f2703b24c0691b5278999c59ac7e62000e3960201b60201c565b11156200166f5773b7a07bcf2ba2f2703b24c0691b5278999c59ac7e600560006101000a81548173ffffffffffffffffffffffffffffffffffffffff021916908373ffffffffffffffffffffffffffffffffffffffff160217905550620016656040518060400160405280600981526020017f6574685f6b6f76616e000000000000000000000000000000000000000000000081525062001a7f60201b60201c565b60019050620019c1565b60006200169673146500cfd35b22e4a392fe0adc06de1a1368ed4862000e3960201b60201c565b1115620017425773146500cfd35b22e4a392fe0adc06de1a1368ed48600560006101000a81548173ffffffffffffffffffffffffffffffffffffffff021916908373ffffffffffffffffffffffffffffffffffffffff160217905550620017386040518060400160405280600b81526020017f6574685f72696e6b65627900000000000000000000000000000000000000000081525062001a7f60201b60201c565b60019050620019c1565b60006200176973a2998efd205fb9d4b4963afb70778d6354ad3a4162000e3960201b60201c565b1115620018155773a2998efd205fb9d4b4963afb70778d6354ad3a41600560006101000a81548173ffffffffffffffffffffffffffffffffffffffff021916908373ffffffffffffffffffffffffffffffffffffffff1602179055506200180b6040518060400160405280600a81526020017f6574685f676f65726c690000000000000000000000000000000000000000000081525062001a7f60201b60201c565b60019050620019c1565b60006200183c736f485c8bf6fc43ea212e93bbf8ce046c7f1cb47562000e3960201b60201c565b1115620018a257736f485c8bf6fc43ea212e93bbf8ce046c7f1cb475600560006101000a81548173ffffffffffffffffffffffffffffffffffffffff021916908373ffffffffffffffffffffffffffffffffffffffff16021790555060019050620019c1565b6000620018c97320e12a1f859b3feae5fb2a0a32c18f5a65555bbf62000e3960201b60201c565b11156200192f577320e12a1f859b3feae5fb2a0a32c18f5a65555bbf600560006101000a81548173ffffffffffffffffffffffffffffffffffffffff021916908373ffffffffffffffffffffffffffffffffffffffff16021790555060019050620019c1565b6000620019567351efaf4c8b3c9afbd5ab9f4bbc82784ab6ef8faa62000e3960201b60201c565b1115620019bc577351efaf4c8b3c9afbd5ab9f4bbc82784ab6ef8faa600560006101000a81548173ffffffffffffffffffffffffffffffffffffffff021916908373ffffffffffffffffffffffffffffffffffffffff16021790555060019050620019c1565b600090505b90565b6060620019d662001a9b60201b60201c565b620019e062001f00565b620019f98161040062001aa760201b62002cac1760201c565b62001a0f8162001af460201b62002cf61760201c565b60008090505b835181101562001a5b5762001a4d84828151811062001a3057fe5b60200260200101518362001b0a60201b62002d041790919060201c565b808060010191505062001a15565b5062001a728162001b3e60201b62002d291760201c565b8060000151915050919050565b806006908051906020019062001a9792919062001f1a565b5050565b60405180590338823950565b600081905060006020828162001ab957fe5b061462001ad4576020818162001acb57fe5b06602003810190505b808360200181815250506040518084526000815281810160405250505050565b62001b0781600462001b5460201b60201c565b50565b62001b1f826002835162001b7c60201b60201c565b62001b39818362001d0460201b62002e981790919060201c565b505050565b62001b5181600762001b5460201b60201c565b50565b62001b78601f60058360ff16901b178362001dc460201b62002f431790919060201c565b5050565b6017811162001bb15762001bab8160058460ff16901b60ff16178462001dc460201b62002f431790919060201c565b62001cff565b60ff811162001c025762001bde601860058460ff16901b178462001dc460201b62002f431790919060201c565b62001bfb8160018562001e0d60201b62002f83179092919060201c565b5062001cfe565b61ffff811162001c545762001c30601960058460ff16901b178462001dc460201b62002f431790919060201c565b62001c4d8160028562001e0d60201b62002f83179092919060201c565b5062001cfd565b63ffffffff811162001ca85762001c84601a60058460ff16901b178462001dc460201b62002f431790919060201c565b62001ca18160048562001e0d60201b62002f83179092919060201c565b5062001cfc565b67ffffffffffffffff811162001cfb5762001cdc601b60058460ff16901b178462001dc460201b62002f431790919060201c565b62001cf98160088562001e0d60201b62002f83179092919060201c565b505b5b5b5b5b505050565b62001d0e62001f00565b8260200151836000015151835101111562001d4f5762001d4e83600262001d418660200151865162001e8760201b60201c565b0262001ea560201b60201c565b5b60008060008451905085518051602081830101945086518101825260208701935050505b6020811062001d98578151835260208301925060208201915060208103905062001d73565b60006001826020036101000a039050801983511681855116818117865250508694505050505092915050565b8160200151600183600001515101111562001df35762001df282600284602001510262001ea560201b60201c565b5b815180516020818301018381536001820183525050505050565b62001e1762001f00565b83602001518460000151518301111562001e565762001e5584600262001e4887602001518662001e8760201b60201c565b0262001ea560201b60201c565b5b60006001836101000a0390508451805184818301018684198251161781528582018352505050849150509392505050565b60008183111562001e9b5782905062001e9f565b8190505b92915050565b60608260000151905062001ec0838362001aa760201b60201c565b62001ed2838262001d0460201b60201c565b50505050565b60405180608001604052806004905b606081526020019060019003908162001ee75790505090565b604051806040016040528060608152602001600081525090565b828054600181600116156101000203166002900490600052602060002090601f016020900481019282601f1062001f5d57805160ff191683800117855562001f8e565b8280016001018555821562001f8e579182015b8281111562001f8d57825182559160200191906001019062001f70565b5b50905062001f9d919062001fa1565b5090565b62001fc691905b8082111562001fc257600081600090555060010162001fa8565b5090565b90565b6131e78062001fd96000396000f3fe6080604052600436106100e85760003560e01c8063853828b61161008a578063b69ef8a811610059578063b69ef8a8146104a8578063c38a8afd146104d3578063d0e30db0146104fe578063dc34b0aa1461051c576100e8565b8063853828b6146103d45780638772ae3c146103ff5780638cf4dbfb1461043a5780638da5cb5b14610451576100e8565b806338bbfa50116100c657806338bbfa501461021f57806343d726d614610388578063797778361461039f578063799ae223146103ca576100e8565b806302e4af01146100ed57806327dc297e1461010b5780632e1a7d4d146101dd575b600080fd5b6100f5610547565b6040518082815260200191505060405180910390f35b34801561011757600080fd5b506101db6004803603604081101561012e57600080fd5b81019080803590602001909291908035906020019064010000000081111561015557600080fd5b82018360208201111561016757600080fd5b8035906020019184600183028401116401000000008311171561018957600080fd5b91908080601f016020809104026020016040519081016040528093929190818152602001838380828437600081840152601f19601f8201169050808301925050505050505091929192905050506105d7565b005b610209600480360360208110156101f357600080fd5b810190808035906020019092919050505061061a565b6040518082815260200191505060405180910390f35b34801561022b57600080fd5b506103866004803603606081101561024257600080fd5b81019080803590602001909291908035906020019064010000000081111561026957600080fd5b82018360208201111561027b57600080fd5b8035906020019184600183028401116401000000008311171561029d57600080fd5b91908080601f016020809104026020016040519081016040528093929190818152602001838380828437600081840152601f19601f8201169050808301925050505050505091929192908035906020019064010000000081111561030057600080fd5b82018360208201111561031257600080fd5b8035906020019184600183028401116401000000008311171561033457600080fd5b91908080601f016020809104026020016040519081016040528093929190818152602001838380828437600081840152601f19601f82011690508083019250505050505050919291929050505061072c565b005b34801561039457600080fd5b5061039d610a8b565b005b3480156103ab57600080fd5b506103b4610b66565b6040518082815260200191505060405180910390f35b6103d2610bb2565b005b3480156103e057600080fd5b506103e9610d1b565b6040518082815260200191505060405180910390f35b34801561040b57600080fd5b506104386004803603602081101561042257600080fd5b8101908080359060200190929190505050610dee565b005b34801561044657600080fd5b5061044f610eba565b005b34801561045d57600080fd5b50610466610f59565b604051808273ffffffffffffffffffffffffffffffffffffffff1673ffffffffffffffffffffffffffffffffffffffff16815260200191505060405180910390f35b3480156104b457600080fd5b506104bd610f7e565b6040518082815260200191505060405180910390f35b3480156104df57600080fd5b506104e8610f84565b6040518082815260200191505060405180910390f35b610506610f8a565b6040518082815260200191505060405180910390f35b34801561052857600080fd5b5061053161109f565b6040518082815260200191505060405180910390f35b60008060009050600062030d4090506000610564836001846110a5565b90507fc4dc360d0a9c0677a3379ae0a3d81e887f761e65fdf3d7e00859d1bcd3c473896040518080602001828103825260178152602001807f50726f7661626c65207175657279207761732073656e7400000000000000000081525060200191505060405180910390a180935050505090565b610616828260006040519080825280601f01601f1916602001820160405280156106105781602001600182028038833980820191505090505b5061072c565b5050565b60008060009054906101000a900473ffffffffffffffffffffffffffffffffffffffff1673ffffffffffffffffffffffffffffffffffffffff163373ffffffffffffffffffffffffffffffffffffffff16146106de576040517f08c379a00000000000000000000000000000000000000000000000000000000081526004018080602001828103825260198152602001807f6f6e6c792061636365737320666f7220746865206f776e65720000000000000081525060200191505060405180910390fd5b7fcdbda4692d85c08dcb06ba853dfb15e5ebba5ef0479978e04f493ec12c2eb1646001546040518082815260200191505060405180910390a16107218233611640565b506001549050919050565b610734611703565b73ffffffffffffffffffffffffffffffffffffffff163373ffffffffffffffffffffffffffffffffffffffff16146107d4576040517f08c379a00000000000000000000000000000000000000000000000000000000081526004018080602001828103825260118152602001807f696e636f7272656374206164647265737300000000000000000000000000000081525060200191505060405180910390fd5b60006002836040516020018082805190602001908083835b6020831061080f57805182526020820191506020810190506020830392506107ec565b6001836020036101000a0380198251168184511680821785525050505050509050019150506040516020818303038152906040528051906020012060001c8161085457fe5b069050806009819055507fd054642608b20770eee6964340fbf033dfd800f8f86a7f4aa60eb1eb3a015590816040518082815260200191505060405180910390a161089d613029565b600a60008681526020019081526020016000206040518060400160405290816000820160009054906101000a900473ffffffffffffffffffffffffffffffffffffffff1673ffffffffffffffffffffffffffffffffffffffff1673ffffffffffffffffffffffffffffffffffffffff1681526020016001820154815250509050600a6000868152602001908152602001600020600080820160006101000a81549073ffffffffffffffffffffffffffffffffffffffff021916905560018201600090555050600080831490508015610a0457600282602001510260036000846000015173ffffffffffffffffffffffffffffffffffffffff1673ffffffffffffffffffffffffffffffffffffffff168152602001908152602001600020540160036000846000015173ffffffffffffffffffffffffffffffffffffffff1673ffffffffffffffffffffffffffffffffffffffff168152602001908152602001600020819055505b7f2be1635c5283f0f6708c284878c1d846208fc30e84bbb8132bb568a17b10b3a48260000151836020015183604051808473ffffffffffffffffffffffffffffffffffffffff1673ffffffffffffffffffffffffffffffffffffffff16815260200183815260200182151515158152602001935050505060405180910390a1505050505050565b6000809054906101000a900473ffffffffffffffffffffffffffffffffffffffff1673ffffffffffffffffffffffffffffffffffffffff163373ffffffffffffffffffffffffffffffffffffffff1614610b4d576040517f08c379a00000000000000000000000000000000000000000000000000000000081526004018080602001828103825260198152602001807f6f6e6c792061636365737320666f7220746865206f776e65720000000000000081525060200191505060405180910390fd5b3373ffffffffffffffffffffffffffffffffffffffff16ff5b600080600360003373ffffffffffffffffffffffffffffffffffffffff1673ffffffffffffffffffffffffffffffffffffffff1681526020019081526020016000205490508091505090565b60025480341015610c0e576040517f08c379a000000000000000000000000000000000000000000000000000000000815260040180806020018281038252602a815260200180613163602a913960400191505060405180910390fd5b346001541015610c69576040517f08c379a00000000000000000000000000000000000000000000000000000000081526004018080602001828103825260238152602001806131406023913960400191505060405180910390fd5b346001600082825401925050819055506000610c83610547565b905060405180604001604052803373ffffffffffffffffffffffffffffffffffffffff16815260200134815250600a600083815260200190815260200160002060008201518160000160006101000a81548173ffffffffffffffffffffffffffffffffffffffff021916908373ffffffffffffffffffffffffffffffffffffffff160217905550602082015181600101559050505050565b60008060009054906101000a900473ffffffffffffffffffffffffffffffffffffffff1673ffffffffffffffffffffffffffffffffffffffff163373ffffffffffffffffffffffffffffffffffffffff1614610ddf576040517f08c379a00000000000000000000000000000000000000000000000000000000081526004018080602001828103825260198152602001807f6f6e6c792061636365737320666f7220746865206f776e65720000000000000081525060200191505060405180910390fd5b610dea60015461061a565b5090565b6000809054906101000a900473ffffffffffffffffffffffffffffffffffffffff1673ffffffffffffffffffffffffffffffffffffffff163373ffffffffffffffffffffffffffffffffffffffff1614610eb0576040517f08c379a00000000000000000000000000000000000000000000000000000000081526004018080602001828103825260198152602001807f6f6e6c792061636365737320666f7220746865206f776e65720000000000000081525060200191505060405180910390fd5b8060028190555050565b6000600360003373ffffffffffffffffffffffffffffffffffffffff1673ffffffffffffffffffffffffffffffffffffffff1681526020019081526020016000205490506000811115610f5657610f118133611640565b50600360003373ffffffffffffffffffffffffffffffffffffffff1673ffffffffffffffffffffffffffffffffffffffff168152602001908152602001600020600090555b50565b6000809054906101000a900473ffffffffffffffffffffffffffffffffffffffff1681565b60015481565b60025481565b60008060009054906101000a900473ffffffffffffffffffffffffffffffffffffffff1673ffffffffffffffffffffffffffffffffffffffff163373ffffffffffffffffffffffffffffffffffffffff161461104e576040517f08c379a00000000000000000000000000000000000000000000000000000000081526004018080602001828103825260198152602001807f6f6e6c792061636365737320666f7220746865206f776e65720000000000000081525060200191505060405180910390fd5b7f60a44ec1e34e2d6bd511ca26c0918fe4ca6cd0e8ade53c85ef9048b355cc41996001546040518082815260200191505060405180910390a134600160008282540192505081905550600154905090565b60095481565b600080831180156110b7575060208311155b6110c057600080fd5b600a84029350606060016040519080825280601f01601f1916602001820160405280156110fc5781602001600182028038833980820191505090505b5090508360f81b8160008151811061111057fe5b60200101907effffffffffffffffffffffffffffffffffffffffffffffffffffffffffffff1916908160001a905350606060206040519080825280601f01601f1916602001820160405280156111755781602001600182028038833980820191505090505b509050606060206040519080825280601f01601f1916602001820160405280156111ae5781602001600182028038833980820191505090505b50905060006111bb611a23565b905060208352424118600143034018602084015260208252806020830152606060206040519080825280601f01601f19166020018201604052801561120f5781602001600182028038833980820191505090505b509050886020820152606060086040519080825280601f01601f19166020018201604052801561124e5781602001600182028038833980820191505090505b5090506112618260186008846000611d43565b5061126a613059565b604051806080016040528087815260200188815260200186815260200184815250905060006112cf6040518060400160405280600681526020017f72616e646f6d0000000000000000000000000000000000000000000000000000815250838c611da2565b9050606060086040519080825280601f01601f1916602001820160405280156113075781602001600182028038833980820191505090505b50905060208401517f0100000000000000000000000000000000000000000000000000000000000000810460278301537e01000000000000000000000000000000000000000000000000000000000000810460268301537d010000000000000000000000000000000000000000000000000000000000810460258301537c0100000000000000000000000000000000000000000000000000000000810460248301537b01000000000000000000000000000000000000000000000000000000810460238301537a01000000000000000000000000000000000000000000000000000081046022830153790100000000000000000000000000000000000000000000000000810460218301537801000000000000000000000000000000000000000000000000810460208301535061162d82828560016004811061144657fe5b602002015160028760006004811061145a57fe5b60200201516040518082805190602001908083835b60208310611492578051825260208201915060208101905060208303925061146f565b6001836020036101000a038019825116818451168082178552505050505050905001915050602060405180830381855afa1580156114d4573d6000803e3d6000fd5b5050506040513d60208110156114e957600080fd5b81019080805190602001909291905050508760026004811061150757fe5b60200201516040516020018085805190602001908083835b60208310611542578051825260208201915060208101905060208303925061151f565b6001836020036101000a03801982511681845116808217855250505050505090500184805190602001908083835b602083106115935780518252602082019150602081019050602083039250611570565b6001836020036101000a03801982511681845116808217855250505050505090500183815260200182805190602001908083835b602083106115ea57805182526020820191506020810190506020830392506115c7565b6001836020036101000a03801982511681845116808217855250505050505090500194505050505060405160208183030381529060405280519060200120612111565b8199505050505050505050509392505050565b600082600154101561169d576040517f08c379a000000000000000000000000000000000000000000000000000000000815260040180806020018281038252602681526020018061318d6026913960400191505060405180910390fd5b6000839050836001600082825403925050819055508273ffffffffffffffffffffffffffffffffffffffff166108fc829081150290604051600060405180830381858888f193505050501580156116f8573d6000803e3d6000fd5b508091505092915050565b60008073ffffffffffffffffffffffffffffffffffffffff16600560009054906101000a900473ffffffffffffffffffffffffffffffffffffffff1673ffffffffffffffffffffffffffffffffffffffff16148061178b57506000611789600560009054906101000a900473ffffffffffffffffffffffffffffffffffffffff1661212d565b145b1561179c5761179a6000612138565b505b600560009054906101000a900473ffffffffffffffffffffffffffffffffffffffff1673ffffffffffffffffffffffffffffffffffffffff166338cc48316040518163ffffffff1660e01b8152600401602060405180830381600087803b15801561180657600080fd5b505af115801561181a573d6000803e3d6000fd5b505050506040513d602081101561183057600080fd5b810190808051906020019092919050505073ffffffffffffffffffffffffffffffffffffffff16600460009054906101000a900473ffffffffffffffffffffffffffffffffffffffff1673ffffffffffffffffffffffffffffffffffffffff161461197b57600560009054906101000a900473ffffffffffffffffffffffffffffffffffffffff1673ffffffffffffffffffffffffffffffffffffffff166338cc48316040518163ffffffff1660e01b8152600401602060405180830381600087803b1580156118ff57600080fd5b505af1158015611913573d6000803e3d6000fd5b505050506040513d602081101561192957600080fd5b8101908080519060200190929190505050600460006101000a81548173ffffffffffffffffffffffffffffffffffffffff021916908373ffffffffffffffffffffffffffffffffffffffff1602179055505b600460009054906101000a900473ffffffffffffffffffffffffffffffffffffffff1673ffffffffffffffffffffffffffffffffffffffff1663c281d19e6040518163ffffffff1660e01b815260040160206040518083038186803b1580156119e357600080fd5b505afa1580156119f7573d6000803e3d6000fd5b505050506040513d6020811015611a0d57600080fd5b8101908080519060200190929190505050905090565b60008073ffffffffffffffffffffffffffffffffffffffff16600560009054906101000a900473ffffffffffffffffffffffffffffffffffffffff1673ffffffffffffffffffffffffffffffffffffffff161480611aab57506000611aa9600560009054906101000a900473ffffffffffffffffffffffffffffffffffffffff1661212d565b145b15611abc57611aba6000612138565b505b600560009054906101000a900473ffffffffffffffffffffffffffffffffffffffff1673ffffffffffffffffffffffffffffffffffffffff166338cc48316040518163ffffffff1660e01b8152600401602060405180830381600087803b158015611b2657600080fd5b505af1158015611b3a573d6000803e3d6000fd5b505050506040513d6020811015611b5057600080fd5b810190808051906020019092919050505073ffffffffffffffffffffffffffffffffffffffff16600460009054906101000a900473ffffffffffffffffffffffffffffffffffffffff1673ffffffffffffffffffffffffffffffffffffffff1614611c9b57600560009054906101000a900473ffffffffffffffffffffffffffffffffffffffff1673ffffffffffffffffffffffffffffffffffffffff166338cc48316040518163ffffffff1660e01b8152600401602060405180830381600087803b158015611c1f57600080fd5b505af1158015611c33573d6000803e3d6000fd5b505050506040513d6020811015611c4957600080fd5b8101908080519060200190929190505050600460006101000a81548173ffffffffffffffffffffffffffffffffffffffff021916908373ffffffffffffffffffffffffffffffffffffffff1602179055505b600460009054906101000a900473ffffffffffffffffffffffffffffffffffffffff1673ffffffffffffffffffffffffffffffffffffffff1663abaa5f3e6040518163ffffffff1660e01b815260040160206040518083038186803b158015611d0357600080fd5b505afa158015611d17573d6000803e3d6000fd5b505050506040513d6020811015611d2d57600080fd5b8101908080519060200190929190505050905090565b6060600082850190508084511015611d5a57600080fd5b600086602001905060008460200190505b868860200101821015611d935781890151808288015250602082019150602081019050611d6b565b85935050505095945050505050565b60008073ffffffffffffffffffffffffffffffffffffffff16600560009054906101000a900473ffffffffffffffffffffffffffffffffffffffff1673ffffffffffffffffffffffffffffffffffffffff161480611e2a57506000611e28600560009054906101000a900473ffffffffffffffffffffffffffffffffffffffff1661212d565b145b15611e3b57611e396000612138565b505b600560009054906101000a900473ffffffffffffffffffffffffffffffffffffffff1673ffffffffffffffffffffffffffffffffffffffff166338cc48316040518163ffffffff1660e01b8152600401602060405180830381600087803b158015611ea557600080fd5b505af1158015611eb9573d6000803e3d6000fd5b505050506040513d6020811015611ecf57600080fd5b810190808051906020019092919050505073ffffffffffffffffffffffffffffffffffffffff16600460009054906101000a900473ffffffffffffffffffffffffffffffffffffffff1673ffffffffffffffffffffffffffffffffffffffff161461201a57600560009054906101000a900473ffffffffffffffffffffffffffffffffffffffff1673ffffffffffffffffffffffffffffffffffffffff166338cc48316040518163ffffffff1660e01b8152600401602060405180830381600087803b158015611f9e57600080fd5b505af1158015611fb2573d6000803e3d6000fd5b505050506040513d6020811015611fc857600080fd5b8101908080519060200190929190505050600460006101000a81548173ffffffffffffffffffffffffffffffffffffffff021916908373ffffffffffffffffffffffffffffffffffffffff1602179055505b6060600460405190808252806020026020018201604052801561205157816020015b606081526020019060019003908161203c5790505b5090508360006004811061206157fe5b60200201518160008151811061207357fe5b60200260200101819052508360016004811061208b57fe5b60200201518160018151811061209d57fe5b6020026020010181905250836002600481106120b557fe5b6020020151816002815181106120c757fe5b6020026020010181905250836003600481106120df57fe5b6020020151816003815181106120f157fe5b6020026020010181905250612107858285612149565b9150509392505050565b8060076000848152602001908152602001600020819055505050565b6000813b9050919050565b60006121426126af565b9050919050565b60008073ffffffffffffffffffffffffffffffffffffffff16600560009054906101000a900473ffffffffffffffffffffffffffffffffffffffff1673ffffffffffffffffffffffffffffffffffffffff1614806121d1575060006121cf600560009054906101000a900473ffffffffffffffffffffffffffffffffffffffff1661212d565b145b156121e2576121e06000612138565b505b600560009054906101000a900473ffffffffffffffffffffffffffffffffffffffff1673ffffffffffffffffffffffffffffffffffffffff166338cc48316040518163ffffffff1660e01b8152600401602060405180830381600087803b15801561224c57600080fd5b505af1158015612260573d6000803e3d6000fd5b505050506040513d602081101561227657600080fd5b810190808051906020019092919050505073ffffffffffffffffffffffffffffffffffffffff16600460009054906101000a900473ffffffffffffffffffffffffffffffffffffffff1673ffffffffffffffffffffffffffffffffffffffff16146123c157600560009054906101000a900473ffffffffffffffffffffffffffffffffffffffff1673ffffffffffffffffffffffffffffffffffffffff166338cc48316040518163ffffffff1660e01b8152600401602060405180830381600087803b15801561234557600080fd5b505af1158015612359573d6000803e3d6000fd5b505050506040513d602081101561236f57600080fd5b8101908080519060200190929190505050600460006101000a81548173ffffffffffffffffffffffffffffffffffffffff021916908373ffffffffffffffffffffffffffffffffffffffff1602179055505b6000600460009054906101000a900473ffffffffffffffffffffffffffffffffffffffff1673ffffffffffffffffffffffffffffffffffffffff16632ef3accc86856040518363ffffffff1660e01b81526004018080602001838152602001828103825284818151815260200191508051906020019080838360005b8381101561245857808201518184015260208101905061243d565b50505050905090810190601f1680156124855780820380516001836020036101000a031916815260200191505b509350505050602060405180830381600087803b1580156124a557600080fd5b505af11580156124b9573d6000803e3d6000fd5b505050506040513d60208110156124cf57600080fd5b81019080805190602001909291905050509050823a02670de0b6b3a764000001811115612502576000801b9150506126a8565b606061250d85612c06565b9050600460009054906101000a900473ffffffffffffffffffffffffffffffffffffffff1673ffffffffffffffffffffffffffffffffffffffff1663c55c1cb68360008985896040518663ffffffff1660e01b8152600401808581526020018060200180602001848152602001838103835286818151815260200191508051906020019080838360005b838110156125b2578082015181840152602081019050612597565b50505050905090810190601f1680156125df5780820380516001836020036101000a031916815260200191505b50838103825285818151815260200191508051906020019080838360005b838110156126185780820151818401526020810190506125fd565b50505050905090810190601f1680156126455780820380516001836020036101000a031916815260200191505b5096505050505050506020604051808303818588803b15801561266757600080fd5b505af115801561267b573d6000803e3d6000fd5b50505050506040513d602081101561269257600080fd5b8101908080519060200190929190505050925050505b9392505050565b6000806126cf731d3b2638a7cc9f2cb3d298a3da7a90b67e5506ed61212d565b111561277157731d3b2638a7cc9f2cb3d298a3da7a90b67e5506ed600560006101000a81548173ffffffffffffffffffffffffffffffffffffffff021916908373ffffffffffffffffffffffffffffffffffffffff1602179055506127686040518060400160405280600b81526020017f6574685f6d61696e6e6574000000000000000000000000000000000000000000815250612c86565b60019050612c03565b600061279073c03a2615d5efaf5f49f60b7bb6583eaec212fdf161212d565b11156128325773c03a2615d5efaf5f49f60b7bb6583eaec212fdf1600560006101000a81548173ffffffffffffffffffffffffffffffffffffffff021916908373ffffffffffffffffffffffffffffffffffffffff1602179055506128296040518060400160405280600c81526020017f6574685f726f707374656e330000000000000000000000000000000000000000815250612c86565b60019050612c03565b600061285173b7a07bcf2ba2f2703b24c0691b5278999c59ac7e61212d565b11156128f35773b7a07bcf2ba2f2703b24c0691b5278999c59ac7e600560006101000a81548173ffffffffffffffffffffffffffffffffffffffff021916908373ffffffffffffffffffffffffffffffffffffffff1602179055506128ea6040518060400160405280600981526020017f6574685f6b6f76616e0000000000000000000000000000000000000000000000815250612c86565b60019050612c03565b600061291273146500cfd35b22e4a392fe0adc06de1a1368ed4861212d565b11156129b45773146500cfd35b22e4a392fe0adc06de1a1368ed48600560006101000a81548173ffffffffffffffffffffffffffffffffffffffff021916908373ffffffffffffffffffffffffffffffffffffffff1602179055506129ab6040518060400160405280600b81526020017f6574685f72696e6b656279000000000000000000000000000000000000000000815250612c86565b60019050612c03565b60006129d373a2998efd205fb9d4b4963afb70778d6354ad3a4161212d565b1115612a755773a2998efd205fb9d4b4963afb70778d6354ad3a41600560006101000a81548173ffffffffffffffffffffffffffffffffffffffff021916908373ffffffffffffffffffffffffffffffffffffffff160217905550612a6c6040518060400160405280600a81526020017f6574685f676f65726c6900000000000000000000000000000000000000000000815250612c86565b60019050612c03565b6000612a94736f485c8bf6fc43ea212e93bbf8ce046c7f1cb47561212d565b1115612af857736f485c8bf6fc43ea212e93bbf8ce046c7f1cb475600560006101000a81548173ffffffffffffffffffffffffffffffffffffffff021916908373ffffffffffffffffffffffffffffffffffffffff16021790555060019050612c03565b6000612b177320e12a1f859b3feae5fb2a0a32c18f5a65555bbf61212d565b1115612b7b577320e12a1f859b3feae5fb2a0a32c18f5a65555bbf600560006101000a81548173ffffffffffffffffffffffffffffffffffffffff021916908373ffffffffffffffffffffffffffffffffffffffff16021790555060019050612c03565b6000612b9a7351efaf4c8b3c9afbd5ab9f4bbc82784ab6ef8faa61212d565b1115612bfe577351efaf4c8b3c9afbd5ab9f4bbc82784ab6ef8faa600560006101000a81548173ffffffffffffffffffffffffffffffffffffffff021916908373ffffffffffffffffffffffffffffffffffffffff16021790555060019050612c03565b600090505b90565b6060612c10612ca0565b612c18613080565b612c2481610400612cac565b612c2d81612cf6565b60008090505b8351811015612c6f57612c62848281518110612c4b57fe5b602002602001015183612d0490919063ffffffff16565b8080600101915050612c33565b50612c7981612d29565b8060000151915050919050565b8060069080519060200190612c9c92919061309a565b5050565b60405180590338823950565b6000819050600060208281612cbd57fe5b0614612cd65760208181612ccd57fe5b06602003810190505b808360200181815250506040518084526000815281810160405250505050565b612d01816004612d37565b50565b612d118260028351612d58565b612d248183612e9890919063ffffffff16565b505050565b612d34816007612d37565b50565b612d54601f60058360ff16901b1783612f4390919063ffffffff16565b5050565b60178111612d8457612d7f8160058460ff16901b60ff161784612f4390919063ffffffff16565b612e93565b60ff8111612dc557612da9601860058460ff16901b1784612f4390919063ffffffff16565b612dbf81600185612f839092919063ffffffff16565b50612e92565b61ffff8111612e0757612deb601960058460ff16901b1784612f4390919063ffffffff16565b612e0181600285612f839092919063ffffffff16565b50612e91565b63ffffffff8111612e4b57612e2f601a60058460ff16901b1784612f4390919063ffffffff16565b612e4581600485612f839092919063ffffffff16565b50612e90565b67ffffffffffffffff8111612e8f57612e77601b60058460ff16901b1784612f4390919063ffffffff16565b612e8d81600885612f839092919063ffffffff16565b505b5b5b5b5b505050565b612ea0613080565b82602001518360000151518351011115612ed057612ecf836002612ec986602001518651612fea565b02613006565b5b60008060008451905085518051602081830101945086518101825260208701935050505b60208110612f175781518352602083019250602082019150602081039050612ef4565b60006001826020036101000a039050801983511681855116818117865250508694505050505092915050565b81602001516001836000015151011115612f6957612f68826002846020015102613006565b5b815180516020818301018381536001820183525050505050565b612f8b613080565b836020015184600001515183011115612fb957612fb8846002612fb2876020015186612fea565b02613006565b5b60006001836101000a0390508451805184818301018684198251161781528582018352505050849150509392505050565b600081831115612ffc57829050613000565b8190505b92915050565b6060826000015190506130198383612cac565b6130238382612e98565b50505050565b6040518060400160405280600073ffffffffffffffffffffffffffffffffffffffff168152602001600081525090565b60405180608001604052806004905b60608152602001906001900390816130685790505090565b604051806040016040528060608152602001600081525090565b828054600181600116156101000203166002900490600052602060002090601f016020900481019282601f106130db57805160ff1916838001178555613109565b82800160010185558215613109579182015b828111156131085782518255916020019190600101906130ed565b5b509050613116919061311a565b5090565b61313c91905b80821115613138576000816000905550600101613120565b5090565b9056fe736f7272792c206e6f7420656e6f756768206d6f6e657920696e207468652062616e6b6e6f7420656e6f7567682066756e6473207472616e7361637465642c206e656564206174206c656173744e6f7420656e6f7567682066756e647320696e207468652062616e6b20746f207061796f7574a265627a7a723158205f02c1c2d0f22d40972f6e524b1825d65f9c336fd6f30b17147afa8400eb8a7164736f6c634300050c0032",
  "source": "pragma solidity 0.5.12;\n\nimport \"./Ownable.sol\";\nimport \"./Bank.sol\";\nimport \"./provableAPI.sol\";\n\ncontract CoinFlip is Ownable, Bank, usingProvable {\n    struct Bet {\n        address sender;\n        uint256 bet;\n    }\n\n    event CoinFlipResult(address caller, uint256 amount, bool won);\n    event LogNewProvableQuery(string message);\n    event GeneratedRandomNumber(uint256 number);\n\n    uint256 constant MAX_INT_FROM_BYTE = 256;\n    uint256 constant NUM_RANDOM_BYTES_REQUESTED = 1;\n\n    uint256 public latestNumber;\n\n    mapping(bytes32 => Bet) private pendingQueries;\n\n    constructor() public {\n        generateRandom();\n    }\n\n    function flipCoin() public payable costs(minimumBet) {\n        require(balance >= msg.value, \"sorry, not enough money in the bank\");\n        balance += msg.value;\n\n        bytes32 queryId = generateRandom();\n\n        pendingQueries[queryId] = Bet(msg.sender, msg.value);\n    }\n\n    function __callback(\n        bytes32 _queryId,\n        string memory _result,\n        bytes memory _proof\n    ) public {\n        require(msg.sender == provable_cbAddress(), \"incorrect address\");\n        uint256 randomNumber = uint256(keccak256(abi.encodePacked(_result))) %\n            2;\n\n        latestNumber = randomNumber;\n        emit GeneratedRandomNumber(randomNumber);\n\n        Bet memory bet = pendingQueries[_queryId];\n        delete pendingQueries[_queryId];\n        bool hasWon = randomNumber == 0;\n\n        if (hasWon) {\n            balancesToBeCollected[bet.sender] =\n                balancesToBeCollected[bet.sender] +\n                bet.bet *\n                2;\n        }\n\n        emit CoinFlipResult(bet.sender, bet.bet, hasWon);\n    }\n\n    function generateRandom() public payable returns (bytes32) {\n        uint256 QUERY_EXECUTION_DELAY = 0;\n        uint256 GAS_FOR_CALLBACK = 200000;\n\n        bytes32 queryId = provable_newRandomDSQuery(\n            QUERY_EXECUTION_DELAY,\n            NUM_RANDOM_BYTES_REQUESTED,\n            GAS_FOR_CALLBACK\n        );\n\n        emit LogNewProvableQuery(\"Provable query was sent\");\n        return queryId;\n    }\n}\n",
  "sourcePath": "/Users/ernowever/Development/Ethereum 201/CoinFlip/smart-contracts/contracts/CoinFlip.sol",
  "compiler": {
    "name": "solc",
    "version": "0.5.12+commit.7709ece9.Emscripten.clang"
  },
  "schemaVersion": "3.0.23",
  "updatedAt": "2020-06-13T15:36:53.412Z",
  "networkType": "ethereum",
  "devdoc": {
    "methods": {
      "__callback(bytes32,string)": {
        "details": "The following `__callback` functions are just placeholders ideally     meant to be defined in child contract when proofs are used.     The function bodies simply silence compiler warnings."
      }
    }
  },
  "userdoc": {
    "methods": {}
  }
}